{"contracts/CitadelVault.sol":{"CitadelVault":{"abi":[{"inputs":[{"internalType":"contract IERC20","name":"_asset","type":"address"},{"internalType":"address","name":"_oracle","type":"address"},{"internalType":"string","name":"_name","type":"string"},{"internalType":"string","name":"_symbol","type":"string"}],"stateMutability":"nonpayable","type":"constructor"},{"inputs":[],"name":"AccessControlBadConfirmation","type":"error"},{"inputs":[{"internalType":"address","name":"account","type":"address"},{"internalType":"bytes32","name":"neededRole","type":"bytes32"}],"name":"AccessControlUnauthorizedAccount","type":"error"},{"inputs":[{"internalType":"address","name":"spender","type":"address"},{"internalType":"uint256","name":"allowance","type":"uint256"},{"internalType":"uint256","name":"needed","type":"uint256"}],"name":"ERC20InsufficientAllowance","type":"error"},{"inputs":[{"internalType":"address","name":"sender","type":"address"},{"internalType":"uint256","name":"balance","type":"uint256"},{"internalType":"uint256","name":"needed","type":"uint256"}],"name":"ERC20InsufficientBalance","type":"error"},{"inputs":[{"internalType":"address","name":"approver","type":"address"}],"name":"ERC20InvalidApprover","type":"error"},{"inputs":[{"internalType":"address","name":"receiver","type":"address"}],"name":"ERC20InvalidReceiver","type":"error"},{"inputs":[{"internalType":"address","name":"sender","type":"address"}],"name":"ERC20InvalidSender","type":"error"},{"inputs":[{"internalType":"address","name":"spender","type":"address"}],"name":"ERC20InvalidSpender","type":"error"},{"inputs":[{"internalType":"address","name":"receiver","type":"address"},{"internalType":"uint256","name":"assets","type":"uint256"},{"internalType":"uint256","name":"max","type":"uint256"}],"name":"ERC4626ExceededMaxDeposit","type":"error"},{"inputs":[{"internalType":"address","name":"receiver","type":"address"},{"internalType":"uint256","name":"shares","type":"uint256"},{"internalType":"uint256","name":"max","type":"uint256"}],"name":"ERC4626ExceededMaxMint","type":"error"},{"inputs":[{"internalType":"address","name":"owner","type":"address"},{"internalType":"uint256","name":"shares","type":"uint256"},{"internalType":"uint256","name":"max","type":"uint256"}],"name":"ERC4626ExceededMaxRedeem","type":"error"},{"inputs":[{"internalType":"address","name":"owner","type":"address"},{"internalType":"uint256","name":"assets","type":"uint256"},{"internalType":"uint256","name":"max","type":"uint256"}],"name":"ERC4626ExceededMaxWithdraw","type":"error"},{"inputs":[],"name":"EnforcedPause","type":"error"},{"inputs":[],"name":"ExpectedPause","type":"error"},{"inputs":[],"name":"ReentrancyGuardReentrantCall","type":"error"},{"inputs":[{"internalType":"address","name":"token","type":"address"}],"name":"SafeERC20FailedOperation","type":"error"},{"anonymous":false,"inputs":[{"indexed":true,"internalType":"address","name":"owner","type":"address"},{"indexed":true,"internalType":"address","name":"spender","type":"address"},{"indexed":false,"internalType":"uint256","name":"value","type":"uint256"}],"name":"Approval","type":"event"},{"anonymous":false,"inputs":[{"indexed":true,"internalType":"address","name":"sender","type":"address"},{"indexed":true,"internalType":"address","name":"owner","type":"address"},{"indexed":false,"internalType":"uint256","name":"assets","type":"uint256"},{"indexed":false,"internalType":"uint256","name":"shares","type":"uint256"}],"name":"Deposit","type":"event"},{"anonymous":false,"inputs":[{"indexed":false,"internalType":"enum CitadelVault.Mode","name":"newMode","type":"uint8"},{"indexed":false,"internalType":"uint256","name":"triggerVolatility","type":"uint256"}],"name":"ModeChanged","type":"event"},{"anonymous":false,"inputs":[{"indexed":true,"internalType":"address","name":"newOracle","type":"address"}],"name":"OracleUpdated","type":"event"},{"anonymous":false,"inputs":[{"indexed":false,"internalType":"address","name":"account","type":"address"}],"name":"Paused","type":"event"},{"anonymous":false,"inputs":[{"indexed":true,"internalType":"bytes32","name":"role","type":"bytes32"},{"indexed":true,"internalType":"bytes32","name":"previousAdminRole","type":"bytes32"},{"indexed":true,"internalType":"bytes32","name":"newAdminRole","type":"bytes32"}],"name":"RoleAdminChanged","type":"event"},{"anonymous":false,"inputs":[{"indexed":true,"internalType":"bytes32","name":"role","type":"bytes32"},{"indexed":true,"internalType":"address","name":"account","type":"address"},{"indexed":true,"internalType":"address","name":"sender","type":"address"}],"name":"RoleGranted","type":"event"},{"anonymous":false,"inputs":[{"indexed":true,"internalType":"bytes32","name":"role","type":"bytes32"},{"indexed":true,"internalType":"address","name":"account","type":"address"},{"indexed":true,"internalType":"address","name":"sender","type":"address"}],"name":"RoleRevoked","type":"event"},{"anonymous":false,"inputs":[{"indexed":true,"internalType":"address","name":"from","type":"address"},{"indexed":true,"internalType":"address","name":"to","type":"address"},{"indexed":false,"internalType":"uint256","name":"value","type":"uint256"}],"name":"Transfer","type":"event"},{"anonymous":false,"inputs":[{"indexed":false,"internalType":"address","name":"account","type":"address"}],"name":"Unpaused","type":"event"},{"anonymous":false,"inputs":[{"indexed":true,"internalType":"address","name":"sender","type":"address"},{"indexed":true,"internalType":"address","name":"receiver","type":"address"},{"indexed":true,"internalType":"address","name":"owner","type":"address"},{"indexed":false,"internalType":"uint256","name":"assets","type":"uint256"},{"indexed":false,"internalType":"uint256","name":"shares","type":"uint256"}],"name":"Withdraw","type":"event"},{"inputs":[],"name":"DEFAULT_ADMIN_ROLE","outputs":[{"internalType":"bytes32","name":"","type":"bytes32"}],"stateMutability":"view","type":"function"},{"inputs":[],"name":"KEEPER_ROLE","outputs":[{"internalType":"bytes32","name":"","type":"bytes32"}],"stateMutability":"view","type":"function"},{"inputs":[],"name":"VOLATILITY_THRESHOLD_HIGH","outputs":[{"internalType":"uint256","name":"","type":"uint256"}],"stateMutability":"view","type":"function"},{"inputs":[],"name":"VOLATILITY_THRESHOLD_LOW","outputs":[{"internalType":"uint256","name":"","type":"uint256"}],"stateMutability":"view","type":"function"},{"inputs":[],"name":"adapt","outputs":[],"stateMutability":"nonpayable","type":"function"},{"inputs":[{"internalType":"address","name":"owner","type":"address"},{"internalType":"address","name":"spender","type":"address"}],"name":"allowance","outputs":[{"internalType":"uint256","name":"","type":"uint256"}],"stateMutability":"view","type":"function"},{"inputs":[{"internalType":"address","name":"spender","type":"address"},{"internalType":"uint256","name":"value","type":"uint256"}],"name":"approve","outputs":[{"internalType":"bool","name":"","type":"bool"}],"stateMutability":"nonpayable","type":"function"},{"inputs":[],"name":"asset","outputs":[{"internalType":"address","name":"","type":"address"}],"stateMutability":"view","type":"function"},{"inputs":[{"internalType":"address","name":"account","type":"address"}],"name":"balanceOf","outputs":[{"internalType":"uint256","name":"","type":"uint256"}],"stateMutability":"view","type":"function"},{"inputs":[{"internalType":"uint256","name":"shares","type":"uint256"}],"name":"convertToAssets","outputs":[{"internalType":"uint256","name":"","type":"uint256"}],"stateMutability":"view","type":"function"},{"inputs":[{"internalType":"uint256","name":"assets","type":"uint256"}],"name":"convertToShares","outputs":[{"internalType":"uint256","name":"","type":"uint256"}],"stateMutability":"view","type":"function"},{"inputs":[],"name":"currentMode","outputs":[{"internalType":"enum CitadelVault.Mode","name":"","type":"uint8"}],"stateMutability":"view","type":"function"},{"inputs":[],"name":"decimals","outputs":[{"internalType":"uint8","name":"","type":"uint8"}],"stateMutability":"view","type":"function"},{"inputs":[{"internalType":"uint256","name":"assets","type":"uint256"},{"internalType":"address","name":"receiver","type":"address"}],"name":"deposit","outputs":[{"internalType":"uint256","name":"","type":"uint256"}],"stateMutability":"nonpayable","type":"function"},{"inputs":[{"internalType":"bytes32","name":"role","type":"bytes32"}],"name":"getRoleAdmin","outputs":[{"internalType":"bytes32","name":"","type":"bytes32"}],"stateMutability":"view","type":"function"},{"inputs":[{"internalType":"bytes32","name":"role","type":"bytes32"},{"internalType":"address","name":"account","type":"address"}],"name":"grantRole","outputs":[],"stateMutability":"nonpayable","type":"function"},{"inputs":[{"internalType":"bytes32","name":"role","type":"bytes32"},{"internalType":"address","name":"account","type":"address"}],"name":"hasRole","outputs":[{"internalType":"bool","name":"","type":"bool"}],"stateMutability":"view","type":"function"},{"inputs":[{"internalType":"address","name":"","type":"address"}],"name":"maxDeposit","outputs":[{"internalType":"uint256","name":"","type":"uint256"}],"stateMutability":"view","type":"function"},{"inputs":[{"internalType":"address","name":"","type":"address"}],"name":"maxMint","outputs":[{"internalType":"uint256","name":"","type":"uint256"}],"stateMutability":"view","type":"function"},{"inputs":[{"internalType":"address","name":"owner","type":"address"}],"name":"maxRedeem","outputs":[{"internalType":"uint256","name":"","type":"uint256"}],"stateMutability":"view","type":"function"},{"inputs":[{"internalType":"address","name":"owner","type":"address"}],"name":"maxWithdraw","outputs":[{"internalType":"uint256","name":"","type":"uint256"}],"stateMutability":"view","type":"function"},{"inputs":[{"internalType":"uint256","name":"shares","type":"uint256"},{"internalType":"address","name":"receiver","type":"address"}],"name":"mint","outputs":[{"internalType":"uint256","name":"","type":"uint256"}],"stateMutability":"nonpayable","type":"function"},{"inputs":[],"name":"name","outputs":[{"internalType":"string","name":"","type":"string"}],"stateMutability":"view","type":"function"},{"inputs":[],"name":"oracle","outputs":[{"internalType":"contract VolatilityOracle","name":"","type":"address"}],"stateMutability":"view","type":"function"},{"inputs":[],"name":"pause","outputs":[],"stateMutability":"nonpayable","type":"function"},{"inputs":[],"name":"paused","outputs":[{"internalType":"bool","name":"","type":"bool"}],"stateMutability":"view","type":"function"},{"inputs":[{"internalType":"uint256","name":"assets","type":"uint256"}],"name":"previewDeposit","outputs":[{"internalType":"uint256","name":"","type":"uint256"}],"stateMutability":"view","type":"function"},{"inputs":[{"internalType":"uint256","name":"shares","type":"uint256"}],"name":"previewMint","outputs":[{"internalType":"uint256","name":"","type":"uint256"}],"stateMutability":"view","type":"function"},{"inputs":[{"internalType":"uint256","name":"shares","type":"uint256"}],"name":"previewRedeem","outputs":[{"internalType":"uint256","name":"","type":"uint256"}],"stateMutability":"view","type":"function"},{"inputs":[{"internalType":"uint256","name":"assets","type":"uint256"}],"name":"previewWithdraw","outputs":[{"internalType":"uint256","name":"","type":"uint256"}],"stateMutability":"view","type":"function"},{"inputs":[{"internalType":"uint256","name":"shares","type":"uint256"},{"internalType":"address","name":"receiver","type":"address"},{"internalType":"address","name":"owner","type":"address"}],"name":"redeem","outputs":[{"internalType":"uint256","name":"","type":"uint256"}],"stateMutability":"nonpayable","type":"function"},{"inputs":[{"internalType":"bytes32","name":"role","type":"bytes32"},{"internalType":"address","name":"callerConfirmation","type":"address"}],"name":"renounceRole","outputs":[],"stateMutability":"nonpayable","type":"function"},{"inputs":[{"internalType":"bytes32","name":"role","type":"bytes32"},{"internalType":"address","name":"account","type":"address"}],"name":"revokeRole","outputs":[],"stateMutability":"nonpayable","type":"function"},{"inputs":[{"internalType":"address","name":"_oracle","type":"address"}],"name":"setOracle","outputs":[],"stateMutability":"nonpayable","type":"function"},{"inputs":[{"internalType":"bytes4","name":"interfaceId","type":"bytes4"}],"name":"supportsInterface","outputs":[{"internalType":"bool","name":"","type":"bool"}],"stateMutability":"view","type":"function"},{"inputs":[],"name":"symbol","outputs":[{"internalType":"string","name":"","type":"string"}],"stateMutability":"view","type":"function"},{"inputs":[],"name":"totalAssets","outputs":[{"internalType":"uint256","name":"","type":"uint256"}],"stateMutability":"view","type":"function"},{"inputs":[],"name":"totalSupply","outputs":[{"internalType":"uint256","name":"","type":"uint256"}],"stateMutability":"view","type":"function"},{"inputs":[{"internalType":"address","name":"to","type":"address"},{"internalType":"uint256","name":"value","type":"uint256"}],"name":"transfer","outputs":[{"internalType":"bool","name":"","type":"bool"}],"stateMutability":"nonpayable","type":"function"},{"inputs":[{"internalType":"address","name":"from","type":"address"},{"internalType":"address","name":"to","type":"address"},{"internalType":"uint256","name":"value","type":"uint256"}],"name":"transferFrom","outputs":[{"internalType":"bool","name":"","type":"bool"}],"stateMutability":"nonpayable","type":"function"},{"inputs":[],"name":"unpause","outputs":[],"stateMutability":"nonpayable","type":"function"},{"inputs":[{"internalType":"uint256","name":"assets","type":"uint256"},{"internalType":"address","name":"receiver","type":"address"},{"internalType":"address","name":"owner","type":"address"}],"name":"withdraw","outputs":[{"internalType":"uint256","name":"","type":"uint256"}],"stateMutability":"nonpayable","type":"function"}],"evm":{"bytecode":{"linkReferences":{},"object":"60c06040523480156200001157600080fd5b5060405162001fb338038062001fb383398101604081905262000034916200035d565b838282600362000045838262000481565b50600462000054828262000481565b5050506000806200006b83620000df60201b60201c565b91509150816200007d5760126200007f565b805b60ff1660a05250506001600160a01b03166080526001600655620000a5600033620001c4565b505060078054610100600160b01b031916620100006001600160a01b03949094169390930261ff0019169290921790915550620005859050565b60408051600481526024810182526020810180516001600160e01b031663313ce56760e01b17905290516000918291829182916001600160a01b0387169162000128916200054d565b600060405180830381855afa9150503d806000811462000165576040519150601f19603f3d011682016040523d82523d6000602084013e6200016a565b606091505b50915091508180156200017f57506020815110155b15620001b7576000818060200190518101906200019d91906200056b565b905060ff8111620001b5576001969095509350505050565b505b5060009485945092505050565b60008281526005602090815260408083206001600160a01b038516845290915281205460ff166200026d5760008381526005602090815260408083206001600160a01b03861684529091529020805460ff19166001179055620002243390565b6001600160a01b0316826001600160a01b0316847f2f8788117e7eff1d82e926ec794901d17c78024a50270940304540a733656f0d60405160405180910390a450600162000271565b5060005b92915050565b6001600160a01b03811681146200028d57600080fd5b50565b634e487b7160e01b600052604160045260246000fd5b60005b83811015620002c3578181015183820152602001620002a9565b50506000910152565b600082601f830112620002de57600080fd5b81516001600160401b0380821115620002fb57620002fb62000290565b604051601f8301601f19908116603f0116810190828211818310171562000326576200032662000290565b816040528381528660208588010111156200034057600080fd5b62000353846020830160208901620002a6565b9695505050505050565b600080600080608085870312156200037457600080fd5b8451620003818162000277565b6020860151909450620003948162000277565b60408601519093506001600160401b0380821115620003b257600080fd5b620003c088838901620002cc565b93506060870151915080821115620003d757600080fd5b50620003e687828801620002cc565b91505092959194509250565b600181811c908216806200040757607f821691505b6020821081036200042857634e487b7160e01b600052602260045260246000fd5b50919050565b601f8211156200047c57600081815260208120601f850160051c81016020861015620004575750805b601f850160051c820191505b81811015620004785782815560010162000463565b5050505b505050565b81516001600160401b038111156200049d576200049d62000290565b620004b581620004ae8454620003f2565b846200042e565b602080601f831160018114620004ed5760008415620004d45750858301515b600019600386901b1c1916600185901b17855562000478565b600085815260208120601f198616915b828110156200051e57888601518255948401946001909101908401620004fd565b50858210156200053d5787850151600019600388901b60f8161c191681555b5050505050600190811b01905550565b6000825162000561818460208701620002a6565b9190910192915050565b6000602082840312156200057e57600080fd5b5051919050565b60805160a0516119f3620005c0600039600061078c0152600081816103a0015281816105aa015281816111e7015261129901526119f36000f3fe608060405234801561001057600080fd5b506004361061025e5760003560e01c80637adbf97311610146578063b460af94116100c3578063d5377ab311610087578063d5377ab314610537578063d547741f1461053f578063d70385be14610552578063d905777e1461055a578063dd62ed3e1461056d578063ef8b30f71461051157600080fd5b8063b460af94146104eb578063ba087652146104fe578063c63d75b6146103e0578063c6e6f59214610511578063ce96cb771461052457600080fd5b806394bf804d1161010a57806394bf804d146104a257806395d89b41146104b5578063a217fddf146104bd578063a9059cbb146104c5578063b3d7f6b9146104d857600080fd5b80637adbf9731461043c5780637dc0d1d01461044f5780638125092f146104685780638456cb591461048757806391d148541461048f57600080fd5b80632f2ff15d116101df5780633f4ba83a116101a35780633f4ba83a146103d8578063402d267d146103e05780634cdad506146102b65780635c975abb146103f55780636e553f651461040057806370a082311461041357600080fd5b80632f2ff15d14610335578063313ce5671461034a578063364bc15a1461036457806336568abe1461038b57806338d52e0f1461039e57600080fd5b806309d524ab1161022657806309d524ab146102dc5780630a28a477146102e457806318160ddd146102f757806323b872dd146102ff578063248a9ca31461031257600080fd5b806301e1d1141461026357806301ffc9a71461027e57806306fdde03146102a157806307a2d13a146102b6578063095ea7b3146102c9575b600080fd5b61026b6105a6565b6040519081526020015b60405180910390f35b61029161028c3660046115ad565b610638565b6040519015158152602001610275565b6102a961066f565b60405161027591906115d7565b61026b6102c4366004611625565b610701565b6102916102d736600461165a565b61070e565b61026b604181565b61026b6102f2366004611625565b610726565b60025461026b565b61029161030d366004611684565b610733565b61026b610320366004611625565b60009081526005602052604090206001015490565b6103486103433660046116c0565b610759565b005b610352610784565b60405160ff9091168152602001610275565b61026b7ffc8737ab85eb45125971625a9ebdb75cc78e01d5c1fa80c4c6e5203f47bc4fab81565b6103486103993660046116c0565b6107b0565b7f00000000000000000000000000000000000000000000000000000000000000005b6040516001600160a01b039091168152602001610275565b6103486107e8565b61026b6103ee3660046116ec565b5060001990565b60075460ff16610291565b61026b61040e3660046116c0565b6107fe565b61026b6104213660046116ec565b6001600160a01b031660009081526020819052604090205490565b61034861044a3660046116ec565b610826565b6007546103c0906201000090046001600160a01b031681565b60075461047a90610100900460ff1681565b604051610275919061173f565b610348610886565b61029161049d3660046116c0565b610899565b61026b6104b03660046116c0565b6108c4565b6102a96108e0565b61026b600081565b6102916104d336600461165a565b6108ef565b61026b6104e6366004611625565b6108fd565b61026b6104f936600461174d565b61090a565b61026b61050c36600461174d565b61092b565b61026b61051f366004611625565b610940565b61026b6105323660046116ec565b61094d565b610348610971565b61034861054d3660046116c0565b610af7565b61026b602d81565b61026b6105683660046116ec565b610b1c565b61026b61057b366004611789565b6001600160a01b03918216600090815260016020908152604080832093909416825291909152205490565b60007f00000000000000000000000000000000000000000000000000000000000000006040516370a0823160e01b81523060048201526001600160a01b0391909116906370a0823190602401602060405180830381865afa15801561060f573d6000803e3d6000fd5b505050506040513d601f19601f8201168201806040525081019061063391906117b3565b905090565b60006001600160e01b03198216637965db0b60e01b148061066957506301ffc9a760e01b6001600160e01b03198316145b92915050565b60606003805461067e906117cc565b80601f01602080910402602001604051908101604052809291908181526020018280546106aa906117cc565b80156106f75780601f106106cc576101008083540402835291602001916106f7565b820191906000526020600020905b8154815290600101906020018083116106da57829003601f168201915b5050505050905090565b6000610669826000610b3a565b60003361071c818585610b74565b5060019392505050565b6000610669826001610b81565b600033610741858285610bb1565b61074c858585610c20565b60019150505b9392505050565b60008281526005602052604090206001015461077481610c7f565b61077e8383610c89565b50505050565b6000610633817f000000000000000000000000000000000000000000000000000000000000000061181c565b6001600160a01b03811633146107d95760405163334bd91960e11b815260040160405180910390fd5b6107e38282610d1d565b505050565b60006107f381610c7f565b6107fb610d8a565b50565b6000610808610ddc565b610810610e06565b61081a8383610e2a565b90506106696001600655565b600061083181610c7f565b6007805462010000600160b01b031916620100006001600160a01b038516908102919091179091556040517f3df77beb5db05fcdd70a30fc8adf3f83f9501b68579455adbd100b818094039490600090a25050565b600061089181610c7f565b6107fb610e50565b60009182526005602090815260408084206001600160a01b0393909316845291905290205460ff1690565b60006108ce610ddc565b6108d6610e06565b61081a8383610e8d565b60606004805461067e906117cc565b60003361071c818585610c20565b6000610669826001610b3a565b6000610914610ddc565b61091f848484610eab565b90506107526001600655565b6000610935610ddc565b61091f848484610f03565b6000610669826000610b81565b6001600160a01b038116600090815260208190526040812054610669906000610b3a565b610979610ddc565b6000600760029054906101000a90046001600160a01b03166001600160a01b031663cce992306040518163ffffffff1660e01b8152600401602060405180830381865afa1580156109ce573d6000803e3d6000fd5b505050506040513d601f19601f820116820180604052508101906109f291906117b3565b90506000600754610100900460ff166001811115610a1257610a12611707565b148015610a1f5750604181115b15610a73576007805461ff0019166101001790556040517fd276948ab5d173775ef24b296a707861e46a91d073413edaf92d2aab54e1e96890610a66906001908490611835565b60405180910390a1610aea565b6001600754610100900460ff166001811115610a9157610a91611707565b148015610a9e5750602d81105b15610aea576007805461ff00191690556040517fd276948ab5d173775ef24b296a707861e46a91d073413edaf92d2aab54e1e96890610ae1906000908490611835565b60405180910390a15b50610af56001600655565b565b600082815260056020526040902060010154610b1281610c7f565b61077e8383610d1d565b6001600160a01b038116600090815260208190526040812054610669565b6000610752610b476105a6565b610b52906001611850565b610b5e6000600a611947565b600254610b6b9190611850565b85919085610f52565b6107e38383836001610f96565b6000610752610b9182600a611947565b600254610b9e9190611850565b610ba66105a6565b610b6b906001611850565b6001600160a01b0383811660009081526001602090815260408083209386168352929052205460001981101561077e5781811015610c1157828183604051637dc7a0d960e11b8152600401610c0893929190611956565b60405180910390fd5b61077e84848484036000610f96565b6001600160a01b038316610c4a57604051634b637e8f60e11b815260006004820152602401610c08565b6001600160a01b038216610c745760405163ec442f0560e01b815260006004820152602401610c08565b6107e383838361106b565b6107fb8133611182565b6000610c958383610899565b610d155760008381526005602090815260408083206001600160a01b03861684529091529020805460ff19166001179055610ccd3390565b6001600160a01b0316826001600160a01b0316847f2f8788117e7eff1d82e926ec794901d17c78024a50270940304540a733656f0d60405160405180910390a4506001610669565b506000610669565b6000610d298383610899565b15610d155760008381526005602090815260408083206001600160a01b0386168085529252808320805460ff1916905551339286917ff6391f5c32d9c69d2a47ea670b442974b53935d1edc7fd64eb21e047a839171b9190a4506001610669565b610d926111bf565b6007805460ff191690557f5db9ee0a495bf2e6ff9c91a7834c1ba4fdd244a5e8aa4e537bd38aeae4b073aa335b6040516001600160a01b03909116815260200160405180910390a1565b600260065403610dff57604051633ee5aeb560e01b815260040160405180910390fd5b6002600655565b60075460ff1615610af55760405163d93c066560e01b815260040160405180910390fd5b60006000196000610e3a85610940565b9050610e48338587846111e2565b949350505050565b610e58610e06565b6007805460ff191660011790557f62e78cea01bee320cd4e420270b5ea74000d11b0c9f74754ebdbfc544b05a258610dbf3390565b60006000196000610e9d856108fd565b9050610e48338583886111e2565b600080610eb78361094d565b905080851115610ee057828582604051633fa733bb60e21b8152600401610c0893929190611956565b6000610eeb86610726565b9050610efa3386868985611266565b95945050505050565b600080610f0f83610b1c565b905080851115610f3857828582604051632e52afbb60e21b8152600401610c0893929190611956565b6000610f4386610701565b9050610efa338686848a611266565b6000610f81610f6083611326565b8015610f7c575060008480610f7757610f77611977565b868809115b151590565b610f8c868686611353565b610efa9190611850565b6001600160a01b038416610fc05760405163e602df0560e01b815260006004820152602401610c08565b6001600160a01b038316610fea57604051634a1406b160e11b815260006004820152602401610c08565b6001600160a01b038085166000908152600160209081526040808320938716835292905220829055801561077e57826001600160a01b0316846001600160a01b03167f8c5be1e5ebec7d5bd14f71427d1e84f3dd0314c0f7b2291e5b200ac8c7c3b9258460405161105d91815260200190565b60405180910390a350505050565b6001600160a01b03831661109657806002600082825461108b9190611850565b909155506110f59050565b6001600160a01b038316600090815260208190526040902054818110156110d65783818360405163391434e360e21b8152600401610c0893929190611956565b6001600160a01b03841660009081526020819052604090209082900390555b6001600160a01b03821661111157600280548290039055611130565b6001600160a01b03821660009081526020819052604090208054820190555b816001600160a01b0316836001600160a01b03167fddf252ad1be2c89b69c2b068fc378daa952ba7f163c4a11628f55a4df523b3ef8360405161117591815260200190565b60405180910390a3505050565b61118c8282610899565b6111bb5760405163e2517d3f60e01b81526001600160a01b038216600482015260248101839052604401610c08565b5050565b60075460ff16610af557604051638dfc202b60e01b815260040160405180910390fd5b61120e7f0000000000000000000000000000000000000000000000000000000000000000853085611408565b611218838261146f565b826001600160a01b0316846001600160a01b03167fdcbc1c05240f31ff3ad067ef1ee35ce4997762752e3a095284754544f4c709d7848460405161105d929190918252602082015260400190565b826001600160a01b0316856001600160a01b03161461128a5761128a838683610bb1565b61129483826114a5565b6112bf7f000000000000000000000000000000000000000000000000000000000000000085846114db565b826001600160a01b0316846001600160a01b0316866001600160a01b03167ffbde797d201c681b91056529119e0b02407c7bb96a4a2c75c01fc9667232c8db8585604051611317929190918252602082015260400190565b60405180910390a45050505050565b6000600282600381111561133c5761133c611707565b611346919061198d565b60ff166001149050919050565b6000806000611362868661150c565b91509150816000036113875783818161137d5761137d611977565b0492505050610752565b81841161139e5761139e600385150260111861152a565b6000848688096000868103871696879004966002600389028118808a02820302808a02820302808a02820302808a02820302808a02820302808a02909103029181900381900460010185841190960395909502919093039390930492909217029150509392505050565b6040516001600160a01b03848116602483015283811660448301526064820183905261077e9186918216906323b872dd906084015b604051602081830303815290604052915060e01b6020820180516001600160e01b03838183161783525050505061153c565b6001600160a01b0382166114995760405163ec442f0560e01b815260006004820152602401610c08565b6111bb6000838361106b565b6001600160a01b0382166114cf57604051634b637e8f60e11b815260006004820152602401610c08565b6111bb8260008361106b565b6040516001600160a01b038381166024830152604482018390526107e391859182169063a9059cbb9060640161143d565b60008060001983850993909202808410938190039390930393915050565b634e487b71600052806020526024601cfd5b600080602060008451602086016000885af18061155f576040513d6000823e3d81fd5b50506000513d91508115611577578060011415611584565b6001600160a01b0384163b155b1561077e57604051635274afe760e01b81526001600160a01b0385166004820152602401610c08565b6000602082840312156115bf57600080fd5b81356001600160e01b03198116811461075257600080fd5b600060208083528351808285015260005b81811015611604578581018301518582016040015282016115e8565b506000604082860101526040601f19601f8301168501019250505092915050565b60006020828403121561163757600080fd5b5035919050565b80356001600160a01b038116811461165557600080fd5b919050565b6000806040838503121561166d57600080fd5b6116768361163e565b946020939093013593505050565b60008060006060848603121561169957600080fd5b6116a28461163e565b92506116b06020850161163e565b9150604084013590509250925092565b600080604083850312156116d357600080fd5b823591506116e36020840161163e565b90509250929050565b6000602082840312156116fe57600080fd5b6107528261163e565b634e487b7160e01b600052602160045260246000fd5b6002811061173b57634e487b7160e01b600052602160045260246000fd5b9052565b60208101610669828461171d565b60008060006060848603121561176257600080fd5b833592506117726020850161163e565b91506117806040850161163e565b90509250925092565b6000806040838503121561179c57600080fd5b6117a58361163e565b91506116e36020840161163e565b6000602082840312156117c557600080fd5b5051919050565b600181811c908216806117e057607f821691505b60208210810361180057634e487b7160e01b600052602260045260246000fd5b50919050565b634e487b7160e01b600052601160045260246000fd5b60ff818116838216019081111561066957610669611806565b60408101611843828561171d565b8260208301529392505050565b8082018082111561066957610669611806565b600181815b8085111561189e57816000190482111561188457611884611806565b8085161561189157918102915b93841c9390800290611868565b509250929050565b6000826118b557506001610669565b816118c257506000610669565b81600181146118d857600281146118e2576118fe565b6001915050610669565b60ff8411156118f3576118f3611806565b50506001821b610669565b5060208310610133831016604e8410600b8410161715611921575081810a610669565b61192b8383611863565b806000190482111561193f5761193f611806565b029392505050565b600061075260ff8416836118a6565b6001600160a01b039390931683526020830191909152604082015260600190565b634e487b7160e01b600052601260045260246000fd5b600060ff8316806119ae57634e487b7160e01b600052601260045260246000fd5b8060ff8416069150509291505056fea2646970667358221220e3e003c3f05a089a30263743538e2bc04750ade59643344a5b0102035f80c9f864736f6c63430008140033","opcodes":"PUSH1 0xC0 PUSH1 0x40 MSTORE CALLVALUE DUP1 ISZERO PUSH3 0x11 JUMPI PUSH1 0x0 DUP1 REVERT JUMPDEST POP PUSH1 0x40 MLOAD PUSH3 0x1FB3 CODESIZE SUB DUP1 PUSH3 0x1FB3 DUP4 CODECOPY DUP2 ADD PUSH1 0x40 DUP2 SWAP1 MSTORE PUSH3 0x34 SWAP2 PUSH3 0x35D JUMP JUMPDEST DUP4 DUP3 DUP3 PUSH1 0x3 PUSH3 0x45 DUP4 DUP3 PUSH3 0x481 JUMP JUMPDEST POP PUSH1 0x4 PUSH3 0x54 DUP3 DUP3 PUSH3 0x481 JUMP JUMPDEST POP POP POP PUSH1 0x0 DUP1 PUSH3 0x6B DUP4 PUSH3 0xDF PUSH1 0x20 SHL PUSH1 0x20 SHR JUMP JUMPDEST SWAP2 POP SWAP2 POP DUP2 PUSH3 0x7D JUMPI PUSH1 0x12 PUSH3 0x7F JUMP JUMPDEST DUP1 JUMPDEST PUSH1 0xFF AND PUSH1 0xA0 MSTORE POP POP PUSH1 0x1 PUSH1 0x1 PUSH1 0xA0 SHL SUB AND PUSH1 0x80 MSTORE PUSH1 0x1 PUSH1 0x6 SSTORE PUSH3 0xA5 PUSH1 0x0 CALLER PUSH3 0x1C4 JUMP JUMPDEST POP POP PUSH1 0x7 DUP1 SLOAD PUSH2 0x100 PUSH1 0x1 PUSH1 0xB0 SHL SUB NOT AND PUSH3 0x10000 PUSH1 0x1 PUSH1 0x1 PUSH1 0xA0 SHL SUB SWAP5 SWAP1 SWAP5 AND SWAP4 SWAP1 SWAP4 MUL PUSH2 0xFF00 NOT AND SWAP3 SWAP1 SWAP3 OR SWAP1 SWAP2 SSTORE POP PUSH3 0x585 SWAP1 POP JUMP JUMPDEST PUSH1 0x40 DUP1 MLOAD PUSH1 0x4 DUP2 MSTORE PUSH1 0x24 DUP2 ADD DUP3 MSTORE PUSH1 0x20 DUP2 ADD DUP1 MLOAD PUSH1 0x1 PUSH1 0x1 PUSH1 0xE0 SHL SUB AND PUSH4 0x313CE567 PUSH1 0xE0 SHL OR SWAP1 MSTORE SWAP1 MLOAD PUSH1 0x0 SWAP2 DUP3 SWAP2 DUP3 SWAP2 DUP3 SWAP2 PUSH1 0x1 PUSH1 0x1 PUSH1 0xA0 SHL SUB DUP8 AND SWAP2 PUSH3 0x128 SWAP2 PUSH3 0x54D JUMP JUMPDEST PUSH1 0x0 PUSH1 0x40 MLOAD DUP1 DUP4 SUB DUP2 DUP6 GAS STATICCALL SWAP2 POP POP RETURNDATASIZE DUP1 PUSH1 0x0 DUP2 EQ PUSH3 0x165 JUMPI PUSH1 0x40 MLOAD SWAP2 POP PUSH1 0x1F NOT PUSH1 0x3F RETURNDATASIZE ADD AND DUP3 ADD PUSH1 0x40 MSTORE RETURNDATASIZE DUP3 MSTORE RETURNDATASIZE PUSH1 0x0 PUSH1 0x20 DUP5 ADD RETURNDATACOPY PUSH3 0x16A JUMP JUMPDEST PUSH1 0x60 SWAP2 POP JUMPDEST POP SWAP2 POP SWAP2 POP DUP2 DUP1 ISZERO PUSH3 0x17F JUMPI POP PUSH1 0x20 DUP2 MLOAD LT ISZERO JUMPDEST ISZERO PUSH3 0x1B7 JUMPI PUSH1 0x0 DUP2 DUP1 PUSH1 0x20 ADD SWAP1 MLOAD DUP2 ADD SWAP1 PUSH3 0x19D SWAP2 SWAP1 PUSH3 0x56B JUMP JUMPDEST SWAP1 POP PUSH1 0xFF DUP2 GT PUSH3 0x1B5 JUMPI PUSH1 0x1 SWAP7 SWAP1 SWAP6 POP SWAP4 POP POP POP POP JUMP JUMPDEST POP JUMPDEST POP PUSH1 0x0 SWAP5 DUP6 SWAP5 POP SWAP3 POP POP POP JUMP JUMPDEST PUSH1 0x0 DUP3 DUP2 MSTORE PUSH1 0x5 PUSH1 0x20 SWAP1 DUP2 MSTORE PUSH1 0x40 DUP1 DUP4 KECCAK256 PUSH1 0x1 PUSH1 0x1 PUSH1 0xA0 SHL SUB DUP6 AND DUP5 MSTORE SWAP1 SWAP2 MSTORE DUP2 KECCAK256 SLOAD PUSH1 0xFF AND PUSH3 0x26D JUMPI PUSH1 0x0 DUP4 DUP2 MSTORE PUSH1 0x5 PUSH1 0x20 SWAP1 DUP2 MSTORE PUSH1 0x40 DUP1 DUP4 KECCAK256 PUSH1 0x1 PUSH1 0x1 PUSH1 0xA0 SHL SUB DUP7 AND DUP5 MSTORE SWAP1 SWAP2 MSTORE SWAP1 KECCAK256 DUP1 SLOAD PUSH1 0xFF NOT AND PUSH1 0x1 OR SWAP1 SSTORE PUSH3 0x224 CALLER SWAP1 JUMP JUMPDEST PUSH1 0x1 PUSH1 0x1 PUSH1 0xA0 SHL SUB AND DUP3 PUSH1 0x1 PUSH1 0x1 PUSH1 0xA0 SHL SUB AND DUP5 PUSH32 0x2F8788117E7EFF1D82E926EC794901D17C78024A50270940304540A733656F0D PUSH1 0x40 MLOAD PUSH1 0x40 MLOAD DUP1 SWAP2 SUB SWAP1 LOG4 POP PUSH1 0x1 PUSH3 0x271 JUMP JUMPDEST POP PUSH1 0x0 JUMPDEST SWAP3 SWAP2 POP POP JUMP JUMPDEST PUSH1 0x1 PUSH1 0x1 PUSH1 0xA0 SHL SUB DUP2 AND DUP2 EQ PUSH3 0x28D JUMPI PUSH1 0x0 DUP1 REVERT JUMPDEST POP JUMP JUMPDEST PUSH4 0x4E487B71 PUSH1 0xE0 SHL PUSH1 0x0 MSTORE PUSH1 0x41 PUSH1 0x4 MSTORE PUSH1 0x24 PUSH1 0x0 REVERT JUMPDEST PUSH1 0x0 JUMPDEST DUP4 DUP2 LT ISZERO PUSH3 0x2C3 JUMPI DUP2 DUP2 ADD MLOAD DUP4 DUP3 ADD MSTORE PUSH1 0x20 ADD PUSH3 0x2A9 JUMP JUMPDEST POP POP PUSH1 0x0 SWAP2 ADD MSTORE JUMP JUMPDEST PUSH1 0x0 DUP3 PUSH1 0x1F DUP4 ADD SLT PUSH3 0x2DE JUMPI PUSH1 0x0 DUP1 REVERT JUMPDEST DUP2 MLOAD PUSH1 0x1 PUSH1 0x1 PUSH1 0x40 SHL SUB DUP1 DUP3 GT ISZERO PUSH3 0x2FB JUMPI PUSH3 0x2FB PUSH3 0x290 JUMP JUMPDEST PUSH1 0x40 MLOAD PUSH1 0x1F DUP4 ADD PUSH1 0x1F NOT SWAP1 DUP2 AND PUSH1 0x3F ADD AND DUP2 ADD SWAP1 DUP3 DUP3 GT DUP2 DUP4 LT OR ISZERO PUSH3 0x326 JUMPI PUSH3 0x326 PUSH3 0x290 JUMP JUMPDEST DUP2 PUSH1 0x40 MSTORE DUP4 DUP2 MSTORE DUP7 PUSH1 0x20 DUP6 DUP9 ADD ADD GT ISZERO PUSH3 0x340 JUMPI PUSH1 0x0 DUP1 REVERT JUMPDEST PUSH3 0x353 DUP5 PUSH1 0x20 DUP4 ADD PUSH1 0x20 DUP10 ADD PUSH3 0x2A6 JUMP JUMPDEST SWAP7 SWAP6 POP POP POP POP POP POP JUMP JUMPDEST PUSH1 0x0 DUP1 PUSH1 0x0 DUP1 PUSH1 0x80 DUP6 DUP8 SUB SLT ISZERO PUSH3 0x374 JUMPI PUSH1 0x0 DUP1 REVERT JUMPDEST DUP5 MLOAD PUSH3 0x381 DUP2 PUSH3 0x277 JUMP JUMPDEST PUSH1 0x20 DUP7 ADD MLOAD SWAP1 SWAP5 POP PUSH3 0x394 DUP2 PUSH3 0x277 JUMP JUMPDEST PUSH1 0x40 DUP7 ADD MLOAD SWAP1 SWAP4 POP PUSH1 0x1 PUSH1 0x1 PUSH1 0x40 SHL SUB DUP1 DUP3 GT ISZERO PUSH3 0x3B2 JUMPI PUSH1 0x0 DUP1 REVERT JUMPDEST PUSH3 0x3C0 DUP9 DUP4 DUP10 ADD PUSH3 0x2CC JUMP JUMPDEST SWAP4 POP PUSH1 0x60 DUP8 ADD MLOAD SWAP2 POP DUP1 DUP3 GT ISZERO PUSH3 0x3D7 JUMPI PUSH1 0x0 DUP1 REVERT JUMPDEST POP PUSH3 0x3E6 DUP8 DUP3 DUP9 ADD PUSH3 0x2CC JUMP JUMPDEST SWAP2 POP POP SWAP3 SWAP6 SWAP2 SWAP5 POP SWAP3 POP JUMP JUMPDEST PUSH1 0x1 DUP2 DUP2 SHR SWAP1 DUP3 AND DUP1 PUSH3 0x407 JUMPI PUSH1 0x7F DUP3 AND SWAP2 POP JUMPDEST PUSH1 0x20 DUP3 LT DUP2 SUB PUSH3 0x428 JUMPI PUSH4 0x4E487B71 PUSH1 0xE0 SHL PUSH1 0x0 MSTORE PUSH1 0x22 PUSH1 0x4 MSTORE PUSH1 0x24 PUSH1 0x0 REVERT JUMPDEST POP SWAP2 SWAP1 POP JUMP JUMPDEST PUSH1 0x1F DUP3 GT ISZERO PUSH3 0x47C JUMPI PUSH1 0x0 DUP2 DUP2 MSTORE PUSH1 0x20 DUP2 KECCAK256 PUSH1 0x1F DUP6 ADD PUSH1 0x5 SHR DUP2 ADD PUSH1 0x20 DUP7 LT ISZERO PUSH3 0x457 JUMPI POP DUP1 JUMPDEST PUSH1 0x1F DUP6 ADD PUSH1 0x5 SHR DUP3 ADD SWAP2 POP JUMPDEST DUP2 DUP2 LT ISZERO PUSH3 0x478 JUMPI DUP3 DUP2 SSTORE PUSH1 0x1 ADD PUSH3 0x463 JUMP JUMPDEST POP POP POP JUMPDEST POP POP POP JUMP JUMPDEST DUP2 MLOAD PUSH1 0x1 PUSH1 0x1 PUSH1 0x40 SHL SUB DUP2 GT ISZERO PUSH3 0x49D JUMPI PUSH3 0x49D PUSH3 0x290 JUMP JUMPDEST PUSH3 0x4B5 DUP2 PUSH3 0x4AE DUP5 SLOAD PUSH3 0x3F2 JUMP JUMPDEST DUP5 PUSH3 0x42E JUMP JUMPDEST PUSH1 0x20 DUP1 PUSH1 0x1F DUP4 GT PUSH1 0x1 DUP2 EQ PUSH3 0x4ED JUMPI PUSH1 0x0 DUP5 ISZERO PUSH3 0x4D4 JUMPI POP DUP6 DUP4 ADD MLOAD JUMPDEST PUSH1 0x0 NOT PUSH1 0x3 DUP7 SWAP1 SHL SHR NOT AND PUSH1 0x1 DUP6 SWAP1 SHL OR DUP6 SSTORE PUSH3 0x478 JUMP JUMPDEST PUSH1 0x0 DUP6 DUP2 MSTORE PUSH1 0x20 DUP2 KECCAK256 PUSH1 0x1F NOT DUP7 AND SWAP2 JUMPDEST DUP3 DUP2 LT ISZERO PUSH3 0x51E JUMPI DUP9 DUP7 ADD MLOAD DUP3 SSTORE SWAP5 DUP5 ADD SWAP5 PUSH1 0x1 SWAP1 SWAP2 ADD SWAP1 DUP5 ADD PUSH3 0x4FD JUMP JUMPDEST POP DUP6 DUP3 LT ISZERO PUSH3 0x53D JUMPI DUP8 DUP6 ADD MLOAD PUSH1 0x0 NOT PUSH1 0x3 DUP9 SWAP1 SHL PUSH1 0xF8 AND SHR NOT AND DUP2 SSTORE JUMPDEST POP POP POP POP POP PUSH1 0x1 SWAP1 DUP2 SHL ADD SWAP1 SSTORE POP JUMP JUMPDEST PUSH1 0x0 DUP3 MLOAD PUSH3 0x561 DUP2 DUP5 PUSH1 0x20 DUP8 ADD PUSH3 0x2A6 JUMP JUMPDEST SWAP2 SWAP1 SWAP2 ADD SWAP3 SWAP2 POP POP JUMP JUMPDEST PUSH1 0x0 PUSH1 0x20 DUP3 DUP5 SUB SLT ISZERO PUSH3 0x57E JUMPI PUSH1 0x0 DUP1 REVERT JUMPDEST POP MLOAD SWAP2 SWAP1 POP JUMP JUMPDEST PUSH1 0x80 MLOAD PUSH1 0xA0 MLOAD PUSH2 0x19F3 PUSH3 0x5C0 PUSH1 0x0 CODECOPY PUSH1 0x0 PUSH2 0x78C ADD MSTORE PUSH1 0x0 DUP2 DUP2 PUSH2 0x3A0 ADD MSTORE DUP2 DUP2 PUSH2 0x5AA ADD MSTORE DUP2 DUP2 PUSH2 0x11E7 ADD MSTORE PUSH2 0x1299 ADD MSTORE PUSH2 0x19F3 PUSH1 0x0 RETURN INVALID PUSH1 0x80 PUSH1 0x40 MSTORE CALLVALUE DUP1 ISZERO PUSH2 0x10 JUMPI PUSH1 0x0 DUP1 REVERT JUMPDEST POP PUSH1 0x4 CALLDATASIZE LT PUSH2 0x25E JUMPI PUSH1 0x0 CALLDATALOAD PUSH1 0xE0 SHR DUP1 PUSH4 0x7ADBF973 GT PUSH2 0x146 JUMPI DUP1 PUSH4 0xB460AF94 GT PUSH2 0xC3 JUMPI DUP1 PUSH4 0xD5377AB3 GT PUSH2 0x87 JUMPI DUP1 PUSH4 0xD5377AB3 EQ PUSH2 0x537 JUMPI DUP1 PUSH4 0xD547741F EQ PUSH2 0x53F JUMPI DUP1 PUSH4 0xD70385BE EQ PUSH2 0x552 JUMPI DUP1 PUSH4 0xD905777E EQ PUSH2 0x55A JUMPI DUP1 PUSH4 0xDD62ED3E EQ PUSH2 0x56D JUMPI DUP1 PUSH4 0xEF8B30F7 EQ PUSH2 0x511 JUMPI PUSH1 0x0 DUP1 REVERT JUMPDEST DUP1 PUSH4 0xB460AF94 EQ PUSH2 0x4EB JUMPI DUP1 PUSH4 0xBA087652 EQ PUSH2 0x4FE JUMPI DUP1 PUSH4 0xC63D75B6 EQ PUSH2 0x3E0 JUMPI DUP1 PUSH4 0xC6E6F592 EQ PUSH2 0x511 JUMPI DUP1 PUSH4 0xCE96CB77 EQ PUSH2 0x524 JUMPI PUSH1 0x0 DUP1 REVERT JUMPDEST DUP1 PUSH4 0x94BF804D GT PUSH2 0x10A JUMPI DUP1 PUSH4 0x94BF804D EQ PUSH2 0x4A2 JUMPI DUP1 PUSH4 0x95D89B41 EQ PUSH2 0x4B5 JUMPI DUP1 PUSH4 0xA217FDDF EQ PUSH2 0x4BD JUMPI DUP1 PUSH4 0xA9059CBB EQ PUSH2 0x4C5 JUMPI DUP1 PUSH4 0xB3D7F6B9 EQ PUSH2 0x4D8 JUMPI PUSH1 0x0 DUP1 REVERT JUMPDEST DUP1 PUSH4 0x7ADBF973 EQ PUSH2 0x43C JUMPI DUP1 PUSH4 0x7DC0D1D0 EQ PUSH2 0x44F JUMPI DUP1 PUSH4 0x8125092F EQ PUSH2 0x468 JUMPI DUP1 PUSH4 0x8456CB59 EQ PUSH2 0x487 JUMPI DUP1 PUSH4 0x91D14854 EQ PUSH2 0x48F JUMPI PUSH1 0x0 DUP1 REVERT JUMPDEST DUP1 PUSH4 0x2F2FF15D GT PUSH2 0x1DF JUMPI DUP1 PUSH4 0x3F4BA83A GT PUSH2 0x1A3 JUMPI DUP1 PUSH4 0x3F4BA83A EQ PUSH2 0x3D8 JUMPI DUP1 PUSH4 0x402D267D EQ PUSH2 0x3E0 JUMPI DUP1 PUSH4 0x4CDAD506 EQ PUSH2 0x2B6 JUMPI DUP1 PUSH4 0x5C975ABB EQ PUSH2 0x3F5 JUMPI DUP1 PUSH4 0x6E553F65 EQ PUSH2 0x400 JUMPI DUP1 PUSH4 0x70A08231 EQ PUSH2 0x413 JUMPI PUSH1 0x0 DUP1 REVERT JUMPDEST DUP1 PUSH4 0x2F2FF15D EQ PUSH2 0x335 JUMPI DUP1 PUSH4 0x313CE567 EQ PUSH2 0x34A JUMPI DUP1 PUSH4 0x364BC15A EQ PUSH2 0x364 JUMPI DUP1 PUSH4 0x36568ABE EQ PUSH2 0x38B JUMPI DUP1 PUSH4 0x38D52E0F EQ PUSH2 0x39E JUMPI PUSH1 0x0 DUP1 REVERT JUMPDEST DUP1 PUSH4 0x9D524AB GT PUSH2 0x226 JUMPI DUP1 PUSH4 0x9D524AB EQ PUSH2 0x2DC JUMPI DUP1 PUSH4 0xA28A477 EQ PUSH2 0x2E4 JUMPI DUP1 PUSH4 0x18160DDD EQ PUSH2 0x2F7 JUMPI DUP1 PUSH4 0x23B872DD EQ PUSH2 0x2FF JUMPI DUP1 PUSH4 0x248A9CA3 EQ PUSH2 0x312 JUMPI PUSH1 0x0 DUP1 REVERT JUMPDEST DUP1 PUSH4 0x1E1D114 EQ PUSH2 0x263 JUMPI DUP1 PUSH4 0x1FFC9A7 EQ PUSH2 0x27E JUMPI DUP1 PUSH4 0x6FDDE03 EQ PUSH2 0x2A1 JUMPI DUP1 PUSH4 0x7A2D13A EQ PUSH2 0x2B6 JUMPI DUP1 PUSH4 0x95EA7B3 EQ PUSH2 0x2C9 JUMPI JUMPDEST PUSH1 0x0 DUP1 REVERT JUMPDEST PUSH2 0x26B PUSH2 0x5A6 JUMP JUMPDEST PUSH1 0x40 MLOAD SWAP1 DUP2 MSTORE PUSH1 0x20 ADD JUMPDEST PUSH1 0x40 MLOAD DUP1 SWAP2 SUB SWAP1 RETURN JUMPDEST PUSH2 0x291 PUSH2 0x28C CALLDATASIZE PUSH1 0x4 PUSH2 0x15AD JUMP JUMPDEST PUSH2 0x638 JUMP JUMPDEST PUSH1 0x40 MLOAD SWAP1 ISZERO ISZERO DUP2 MSTORE PUSH1 0x20 ADD PUSH2 0x275 JUMP JUMPDEST PUSH2 0x2A9 PUSH2 0x66F JUMP JUMPDEST PUSH1 0x40 MLOAD PUSH2 0x275 SWAP2 SWAP1 PUSH2 0x15D7 JUMP JUMPDEST PUSH2 0x26B PUSH2 0x2C4 CALLDATASIZE PUSH1 0x4 PUSH2 0x1625 JUMP JUMPDEST PUSH2 0x701 JUMP JUMPDEST PUSH2 0x291 PUSH2 0x2D7 CALLDATASIZE PUSH1 0x4 PUSH2 0x165A JUMP JUMPDEST PUSH2 0x70E JUMP JUMPDEST PUSH2 0x26B PUSH1 0x41 DUP2 JUMP JUMPDEST PUSH2 0x26B PUSH2 0x2F2 CALLDATASIZE PUSH1 0x4 PUSH2 0x1625 JUMP JUMPDEST PUSH2 0x726 JUMP JUMPDEST PUSH1 0x2 SLOAD PUSH2 0x26B JUMP JUMPDEST PUSH2 0x291 PUSH2 0x30D CALLDATASIZE PUSH1 0x4 PUSH2 0x1684 JUMP JUMPDEST PUSH2 0x733 JUMP JUMPDEST PUSH2 0x26B PUSH2 0x320 CALLDATASIZE PUSH1 0x4 PUSH2 0x1625 JUMP JUMPDEST PUSH1 0x0 SWAP1 DUP2 MSTORE PUSH1 0x5 PUSH1 0x20 MSTORE PUSH1 0x40 SWAP1 KECCAK256 PUSH1 0x1 ADD SLOAD SWAP1 JUMP JUMPDEST PUSH2 0x348 PUSH2 0x343 CALLDATASIZE PUSH1 0x4 PUSH2 0x16C0 JUMP JUMPDEST PUSH2 0x759 JUMP JUMPDEST STOP JUMPDEST PUSH2 0x352 PUSH2 0x784 JUMP JUMPDEST PUSH1 0x40 MLOAD PUSH1 0xFF SWAP1 SWAP2 AND DUP2 MSTORE PUSH1 0x20 ADD PUSH2 0x275 JUMP JUMPDEST PUSH2 0x26B PUSH32 0xFC8737AB85EB45125971625A9EBDB75CC78E01D5C1FA80C4C6E5203F47BC4FAB DUP2 JUMP JUMPDEST PUSH2 0x348 PUSH2 0x399 CALLDATASIZE PUSH1 0x4 PUSH2 0x16C0 JUMP JUMPDEST PUSH2 0x7B0 JUMP JUMPDEST PUSH32 0x0 JUMPDEST PUSH1 0x40 MLOAD PUSH1 0x1 PUSH1 0x1 PUSH1 0xA0 SHL SUB SWAP1 SWAP2 AND DUP2 MSTORE PUSH1 0x20 ADD PUSH2 0x275 JUMP JUMPDEST PUSH2 0x348 PUSH2 0x7E8 JUMP JUMPDEST PUSH2 0x26B PUSH2 0x3EE CALLDATASIZE PUSH1 0x4 PUSH2 0x16EC JUMP JUMPDEST POP PUSH1 0x0 NOT SWAP1 JUMP JUMPDEST PUSH1 0x7 SLOAD PUSH1 0xFF AND PUSH2 0x291 JUMP JUMPDEST PUSH2 0x26B PUSH2 0x40E CALLDATASIZE PUSH1 0x4 PUSH2 0x16C0 JUMP JUMPDEST PUSH2 0x7FE JUMP JUMPDEST PUSH2 0x26B PUSH2 0x421 CALLDATASIZE PUSH1 0x4 PUSH2 0x16EC JUMP JUMPDEST PUSH1 0x1 PUSH1 0x1 PUSH1 0xA0 SHL SUB AND PUSH1 0x0 SWAP1 DUP2 MSTORE PUSH1 0x20 DUP2 SWAP1 MSTORE PUSH1 0x40 SWAP1 KECCAK256 SLOAD SWAP1 JUMP JUMPDEST PUSH2 0x348 PUSH2 0x44A CALLDATASIZE PUSH1 0x4 PUSH2 0x16EC JUMP JUMPDEST PUSH2 0x826 JUMP JUMPDEST PUSH1 0x7 SLOAD PUSH2 0x3C0 SWAP1 PUSH3 0x10000 SWAP1 DIV PUSH1 0x1 PUSH1 0x1 PUSH1 0xA0 SHL SUB AND DUP2 JUMP JUMPDEST PUSH1 0x7 SLOAD PUSH2 0x47A SWAP1 PUSH2 0x100 SWAP1 DIV PUSH1 0xFF AND DUP2 JUMP JUMPDEST PUSH1 0x40 MLOAD PUSH2 0x275 SWAP2 SWAP1 PUSH2 0x173F JUMP JUMPDEST PUSH2 0x348 PUSH2 0x886 JUMP JUMPDEST PUSH2 0x291 PUSH2 0x49D CALLDATASIZE PUSH1 0x4 PUSH2 0x16C0 JUMP JUMPDEST PUSH2 0x899 JUMP JUMPDEST PUSH2 0x26B PUSH2 0x4B0 CALLDATASIZE PUSH1 0x4 PUSH2 0x16C0 JUMP JUMPDEST PUSH2 0x8C4 JUMP JUMPDEST PUSH2 0x2A9 PUSH2 0x8E0 JUMP JUMPDEST PUSH2 0x26B PUSH1 0x0 DUP2 JUMP JUMPDEST PUSH2 0x291 PUSH2 0x4D3 CALLDATASIZE PUSH1 0x4 PUSH2 0x165A JUMP JUMPDEST PUSH2 0x8EF JUMP JUMPDEST PUSH2 0x26B PUSH2 0x4E6 CALLDATASIZE PUSH1 0x4 PUSH2 0x1625 JUMP JUMPDEST PUSH2 0x8FD JUMP JUMPDEST PUSH2 0x26B PUSH2 0x4F9 CALLDATASIZE PUSH1 0x4 PUSH2 0x174D JUMP JUMPDEST PUSH2 0x90A JUMP JUMPDEST PUSH2 0x26B PUSH2 0x50C CALLDATASIZE PUSH1 0x4 PUSH2 0x174D JUMP JUMPDEST PUSH2 0x92B JUMP JUMPDEST PUSH2 0x26B PUSH2 0x51F CALLDATASIZE PUSH1 0x4 PUSH2 0x1625 JUMP JUMPDEST PUSH2 0x940 JUMP JUMPDEST PUSH2 0x26B PUSH2 0x532 CALLDATASIZE PUSH1 0x4 PUSH2 0x16EC JUMP JUMPDEST PUSH2 0x94D JUMP JUMPDEST PUSH2 0x348 PUSH2 0x971 JUMP JUMPDEST PUSH2 0x348 PUSH2 0x54D CALLDATASIZE PUSH1 0x4 PUSH2 0x16C0 JUMP JUMPDEST PUSH2 0xAF7 JUMP JUMPDEST PUSH2 0x26B PUSH1 0x2D DUP2 JUMP JUMPDEST PUSH2 0x26B PUSH2 0x568 CALLDATASIZE PUSH1 0x4 PUSH2 0x16EC JUMP JUMPDEST PUSH2 0xB1C JUMP JUMPDEST PUSH2 0x26B PUSH2 0x57B CALLDATASIZE PUSH1 0x4 PUSH2 0x1789 JUMP JUMPDEST PUSH1 0x1 PUSH1 0x1 PUSH1 0xA0 SHL SUB SWAP2 DUP3 AND PUSH1 0x0 SWAP1 DUP2 MSTORE PUSH1 0x1 PUSH1 0x20 SWAP1 DUP2 MSTORE PUSH1 0x40 DUP1 DUP4 KECCAK256 SWAP4 SWAP1 SWAP5 AND DUP3 MSTORE SWAP2 SWAP1 SWAP2 MSTORE KECCAK256 SLOAD SWAP1 JUMP JUMPDEST PUSH1 0x0 PUSH32 0x0 PUSH1 0x40 MLOAD PUSH4 0x70A08231 PUSH1 0xE0 SHL DUP2 MSTORE ADDRESS PUSH1 0x4 DUP3 ADD MSTORE PUSH1 0x1 PUSH1 0x1 PUSH1 0xA0 SHL SUB SWAP2 SWAP1 SWAP2 AND SWAP1 PUSH4 0x70A08231 SWAP1 PUSH1 0x24 ADD PUSH1 0x20 PUSH1 0x40 MLOAD DUP1 DUP4 SUB DUP2 DUP7 GAS STATICCALL ISZERO DUP1 ISZERO PUSH2 0x60F JUMPI RETURNDATASIZE PUSH1 0x0 DUP1 RETURNDATACOPY RETURNDATASIZE PUSH1 0x0 REVERT JUMPDEST POP POP POP POP PUSH1 0x40 MLOAD RETURNDATASIZE PUSH1 0x1F NOT PUSH1 0x1F DUP3 ADD AND DUP3 ADD DUP1 PUSH1 0x40 MSTORE POP DUP2 ADD SWAP1 PUSH2 0x633 SWAP2 SWAP1 PUSH2 0x17B3 JUMP JUMPDEST SWAP1 POP SWAP1 JUMP JUMPDEST PUSH1 0x0 PUSH1 0x1 PUSH1 0x1 PUSH1 0xE0 SHL SUB NOT DUP3 AND PUSH4 0x7965DB0B PUSH1 0xE0 SHL EQ DUP1 PUSH2 0x669 JUMPI POP PUSH4 0x1FFC9A7 PUSH1 0xE0 SHL PUSH1 0x1 PUSH1 0x1 PUSH1 0xE0 SHL SUB NOT DUP4 AND EQ JUMPDEST SWAP3 SWAP2 POP POP JUMP JUMPDEST PUSH1 0x60 PUSH1 0x3 DUP1 SLOAD PUSH2 0x67E SWAP1 PUSH2 0x17CC JUMP JUMPDEST DUP1 PUSH1 0x1F ADD PUSH1 0x20 DUP1 SWAP2 DIV MUL PUSH1 0x20 ADD PUSH1 0x40 MLOAD SWAP1 DUP2 ADD PUSH1 0x40 MSTORE DUP1 SWAP3 SWAP2 SWAP1 DUP2 DUP2 MSTORE PUSH1 0x20 ADD DUP3 DUP1 SLOAD PUSH2 0x6AA SWAP1 PUSH2 0x17CC JUMP JUMPDEST DUP1 ISZERO PUSH2 0x6F7 JUMPI DUP1 PUSH1 0x1F LT PUSH2 0x6CC JUMPI PUSH2 0x100 DUP1 DUP4 SLOAD DIV MUL DUP4 MSTORE SWAP2 PUSH1 0x20 ADD SWAP2 PUSH2 0x6F7 JUMP JUMPDEST DUP3 ADD SWAP2 SWAP1 PUSH1 0x0 MSTORE PUSH1 0x20 PUSH1 0x0 KECCAK256 SWAP1 JUMPDEST DUP2 SLOAD DUP2 MSTORE SWAP1 PUSH1 0x1 ADD SWAP1 PUSH1 0x20 ADD DUP1 DUP4 GT PUSH2 0x6DA JUMPI DUP3 SWAP1 SUB PUSH1 0x1F AND DUP3 ADD SWAP2 JUMPDEST POP POP POP POP POP SWAP1 POP SWAP1 JUMP JUMPDEST PUSH1 0x0 PUSH2 0x669 DUP3 PUSH1 0x0 PUSH2 0xB3A JUMP JUMPDEST PUSH1 0x0 CALLER PUSH2 0x71C DUP2 DUP6 DUP6 PUSH2 0xB74 JUMP JUMPDEST POP PUSH1 0x1 SWAP4 SWAP3 POP POP POP JUMP JUMPDEST PUSH1 0x0 PUSH2 0x669 DUP3 PUSH1 0x1 PUSH2 0xB81 JUMP JUMPDEST PUSH1 0x0 CALLER PUSH2 0x741 DUP6 DUP3 DUP6 PUSH2 0xBB1 JUMP JUMPDEST PUSH2 0x74C DUP6 DUP6 DUP6 PUSH2 0xC20 JUMP JUMPDEST PUSH1 0x1 SWAP2 POP POP JUMPDEST SWAP4 SWAP3 POP POP POP JUMP JUMPDEST PUSH1 0x0 DUP3 DUP2 MSTORE PUSH1 0x5 PUSH1 0x20 MSTORE PUSH1 0x40 SWAP1 KECCAK256 PUSH1 0x1 ADD SLOAD PUSH2 0x774 DUP2 PUSH2 0xC7F JUMP JUMPDEST PUSH2 0x77E DUP4 DUP4 PUSH2 0xC89 JUMP JUMPDEST POP POP POP POP JUMP JUMPDEST PUSH1 0x0 PUSH2 0x633 DUP2 PUSH32 0x0 PUSH2 0x181C JUMP JUMPDEST PUSH1 0x1 PUSH1 0x1 PUSH1 0xA0 SHL SUB DUP2 AND CALLER EQ PUSH2 0x7D9 JUMPI PUSH1 0x40 MLOAD PUSH4 0x334BD919 PUSH1 0xE1 SHL DUP2 MSTORE PUSH1 0x4 ADD PUSH1 0x40 MLOAD DUP1 SWAP2 SUB SWAP1 REVERT JUMPDEST PUSH2 0x7E3 DUP3 DUP3 PUSH2 0xD1D JUMP JUMPDEST POP POP POP JUMP JUMPDEST PUSH1 0x0 PUSH2 0x7F3 DUP2 PUSH2 0xC7F JUMP JUMPDEST PUSH2 0x7FB PUSH2 0xD8A JUMP JUMPDEST POP JUMP JUMPDEST PUSH1 0x0 PUSH2 0x808 PUSH2 0xDDC JUMP JUMPDEST PUSH2 0x810 PUSH2 0xE06 JUMP JUMPDEST PUSH2 0x81A DUP4 DUP4 PUSH2 0xE2A JUMP JUMPDEST SWAP1 POP PUSH2 0x669 PUSH1 0x1 PUSH1 0x6 SSTORE JUMP JUMPDEST PUSH1 0x0 PUSH2 0x831 DUP2 PUSH2 0xC7F JUMP JUMPDEST PUSH1 0x7 DUP1 SLOAD PUSH3 0x10000 PUSH1 0x1 PUSH1 0xB0 SHL SUB NOT AND PUSH3 0x10000 PUSH1 0x1 PUSH1 0x1 PUSH1 0xA0 SHL SUB DUP6 AND SWAP1 DUP2 MUL SWAP2 SWAP1 SWAP2 OR SWAP1 SWAP2 SSTORE PUSH1 0x40 MLOAD PUSH32 0x3DF77BEB5DB05FCDD70A30FC8ADF3F83F9501B68579455ADBD100B8180940394 SWAP1 PUSH1 0x0 SWAP1 LOG2 POP POP JUMP JUMPDEST PUSH1 0x0 PUSH2 0x891 DUP2 PUSH2 0xC7F JUMP JUMPDEST PUSH2 0x7FB PUSH2 0xE50 JUMP JUMPDEST PUSH1 0x0 SWAP2 DUP3 MSTORE PUSH1 0x5 PUSH1 0x20 SWAP1 DUP2 MSTORE PUSH1 0x40 DUP1 DUP5 KECCAK256 PUSH1 0x1 PUSH1 0x1 PUSH1 0xA0 SHL SUB SWAP4 SWAP1 SWAP4 AND DUP5 MSTORE SWAP2 SWAP1 MSTORE SWAP1 KECCAK256 SLOAD PUSH1 0xFF AND SWAP1 JUMP JUMPDEST PUSH1 0x0 PUSH2 0x8CE PUSH2 0xDDC JUMP JUMPDEST PUSH2 0x8D6 PUSH2 0xE06 JUMP JUMPDEST PUSH2 0x81A DUP4 DUP4 PUSH2 0xE8D JUMP JUMPDEST PUSH1 0x60 PUSH1 0x4 DUP1 SLOAD PUSH2 0x67E SWAP1 PUSH2 0x17CC JUMP JUMPDEST PUSH1 0x0 CALLER PUSH2 0x71C DUP2 DUP6 DUP6 PUSH2 0xC20 JUMP JUMPDEST PUSH1 0x0 PUSH2 0x669 DUP3 PUSH1 0x1 PUSH2 0xB3A JUMP JUMPDEST PUSH1 0x0 PUSH2 0x914 PUSH2 0xDDC JUMP JUMPDEST PUSH2 0x91F DUP5 DUP5 DUP5 PUSH2 0xEAB JUMP JUMPDEST SWAP1 POP PUSH2 0x752 PUSH1 0x1 PUSH1 0x6 SSTORE JUMP JUMPDEST PUSH1 0x0 PUSH2 0x935 PUSH2 0xDDC JUMP JUMPDEST PUSH2 0x91F DUP5 DUP5 DUP5 PUSH2 0xF03 JUMP JUMPDEST PUSH1 0x0 PUSH2 0x669 DUP3 PUSH1 0x0 PUSH2 0xB81 JUMP JUMPDEST PUSH1 0x1 PUSH1 0x1 PUSH1 0xA0 SHL SUB DUP2 AND PUSH1 0x0 SWAP1 DUP2 MSTORE PUSH1 0x20 DUP2 SWAP1 MSTORE PUSH1 0x40 DUP2 KECCAK256 SLOAD PUSH2 0x669 SWAP1 PUSH1 0x0 PUSH2 0xB3A JUMP JUMPDEST PUSH2 0x979 PUSH2 0xDDC JUMP JUMPDEST PUSH1 0x0 PUSH1 0x7 PUSH1 0x2 SWAP1 SLOAD SWAP1 PUSH2 0x100 EXP SWAP1 DIV PUSH1 0x1 PUSH1 0x1 PUSH1 0xA0 SHL SUB AND PUSH1 0x1 PUSH1 0x1 PUSH1 0xA0 SHL SUB AND PUSH4 0xCCE99230 PUSH1 0x40 MLOAD DUP2 PUSH4 0xFFFFFFFF AND PUSH1 0xE0 SHL DUP2 MSTORE PUSH1 0x4 ADD PUSH1 0x20 PUSH1 0x40 MLOAD DUP1 DUP4 SUB DUP2 DUP7 GAS STATICCALL ISZERO DUP1 ISZERO PUSH2 0x9CE JUMPI RETURNDATASIZE PUSH1 0x0 DUP1 RETURNDATACOPY RETURNDATASIZE PUSH1 0x0 REVERT JUMPDEST POP POP POP POP PUSH1 0x40 MLOAD RETURNDATASIZE PUSH1 0x1F NOT PUSH1 0x1F DUP3 ADD AND DUP3 ADD DUP1 PUSH1 0x40 MSTORE POP DUP2 ADD SWAP1 PUSH2 0x9F2 SWAP2 SWAP1 PUSH2 0x17B3 JUMP JUMPDEST SWAP1 POP PUSH1 0x0 PUSH1 0x7 SLOAD PUSH2 0x100 SWAP1 DIV PUSH1 0xFF AND PUSH1 0x1 DUP2 GT ISZERO PUSH2 0xA12 JUMPI PUSH2 0xA12 PUSH2 0x1707 JUMP JUMPDEST EQ DUP1 ISZERO PUSH2 0xA1F JUMPI POP PUSH1 0x41 DUP2 GT JUMPDEST ISZERO PUSH2 0xA73 JUMPI PUSH1 0x7 DUP1 SLOAD PUSH2 0xFF00 NOT AND PUSH2 0x100 OR SWAP1 SSTORE PUSH1 0x40 MLOAD PUSH32 0xD276948AB5D173775EF24B296A707861E46A91D073413EDAF92D2AAB54E1E968 SWAP1 PUSH2 0xA66 SWAP1 PUSH1 0x1 SWAP1 DUP5 SWAP1 PUSH2 0x1835 JUMP JUMPDEST PUSH1 0x40 MLOAD DUP1 SWAP2 SUB SWAP1 LOG1 PUSH2 0xAEA JUMP JUMPDEST PUSH1 0x1 PUSH1 0x7 SLOAD PUSH2 0x100 SWAP1 DIV PUSH1 0xFF AND PUSH1 0x1 DUP2 GT ISZERO PUSH2 0xA91 JUMPI PUSH2 0xA91 PUSH2 0x1707 JUMP JUMPDEST EQ DUP1 ISZERO PUSH2 0xA9E JUMPI POP PUSH1 0x2D DUP2 LT JUMPDEST ISZERO PUSH2 0xAEA JUMPI PUSH1 0x7 DUP1 SLOAD PUSH2 0xFF00 NOT AND SWAP1 SSTORE PUSH1 0x40 MLOAD PUSH32 0xD276948AB5D173775EF24B296A707861E46A91D073413EDAF92D2AAB54E1E968 SWAP1 PUSH2 0xAE1 SWAP1 PUSH1 0x0 SWAP1 DUP5 SWAP1 PUSH2 0x1835 JUMP JUMPDEST PUSH1 0x40 MLOAD DUP1 SWAP2 SUB SWAP1 LOG1 JUMPDEST POP PUSH2 0xAF5 PUSH1 0x1 PUSH1 0x6 SSTORE JUMP JUMPDEST JUMP JUMPDEST PUSH1 0x0 DUP3 DUP2 MSTORE PUSH1 0x5 PUSH1 0x20 MSTORE PUSH1 0x40 SWAP1 KECCAK256 PUSH1 0x1 ADD SLOAD PUSH2 0xB12 DUP2 PUSH2 0xC7F JUMP JUMPDEST PUSH2 0x77E DUP4 DUP4 PUSH2 0xD1D JUMP JUMPDEST PUSH1 0x1 PUSH1 0x1 PUSH1 0xA0 SHL SUB DUP2 AND PUSH1 0x0 SWAP1 DUP2 MSTORE PUSH1 0x20 DUP2 SWAP1 MSTORE PUSH1 0x40 DUP2 KECCAK256 SLOAD PUSH2 0x669 JUMP JUMPDEST PUSH1 0x0 PUSH2 0x752 PUSH2 0xB47 PUSH2 0x5A6 JUMP JUMPDEST PUSH2 0xB52 SWAP1 PUSH1 0x1 PUSH2 0x1850 JUMP JUMPDEST PUSH2 0xB5E PUSH1 0x0 PUSH1 0xA PUSH2 0x1947 JUMP JUMPDEST PUSH1 0x2 SLOAD PUSH2 0xB6B SWAP2 SWAP1 PUSH2 0x1850 JUMP JUMPDEST DUP6 SWAP2 SWAP1 DUP6 PUSH2 0xF52 JUMP JUMPDEST PUSH2 0x7E3 DUP4 DUP4 DUP4 PUSH1 0x1 PUSH2 0xF96 JUMP JUMPDEST PUSH1 0x0 PUSH2 0x752 PUSH2 0xB91 DUP3 PUSH1 0xA PUSH2 0x1947 JUMP JUMPDEST PUSH1 0x2 SLOAD PUSH2 0xB9E SWAP2 SWAP1 PUSH2 0x1850 JUMP JUMPDEST PUSH2 0xBA6 PUSH2 0x5A6 JUMP JUMPDEST PUSH2 0xB6B SWAP1 PUSH1 0x1 PUSH2 0x1850 JUMP JUMPDEST PUSH1 0x1 PUSH1 0x1 PUSH1 0xA0 SHL SUB DUP4 DUP2 AND PUSH1 0x0 SWAP1 DUP2 MSTORE PUSH1 0x1 PUSH1 0x20 SWAP1 DUP2 MSTORE PUSH1 0x40 DUP1 DUP4 KECCAK256 SWAP4 DUP7 AND DUP4 MSTORE SWAP3 SWAP1 MSTORE KECCAK256 SLOAD PUSH1 0x0 NOT DUP2 LT ISZERO PUSH2 0x77E JUMPI DUP2 DUP2 LT ISZERO PUSH2 0xC11 JUMPI DUP3 DUP2 DUP4 PUSH1 0x40 MLOAD PUSH4 0x7DC7A0D9 PUSH1 0xE1 SHL DUP2 MSTORE PUSH1 0x4 ADD PUSH2 0xC08 SWAP4 SWAP3 SWAP2 SWAP1 PUSH2 0x1956 JUMP JUMPDEST PUSH1 0x40 MLOAD DUP1 SWAP2 SUB SWAP1 REVERT JUMPDEST PUSH2 0x77E DUP5 DUP5 DUP5 DUP5 SUB PUSH1 0x0 PUSH2 0xF96 JUMP JUMPDEST PUSH1 0x1 PUSH1 0x1 PUSH1 0xA0 SHL SUB DUP4 AND PUSH2 0xC4A JUMPI PUSH1 0x40 MLOAD PUSH4 0x4B637E8F PUSH1 0xE1 SHL DUP2 MSTORE PUSH1 0x0 PUSH1 0x4 DUP3 ADD MSTORE PUSH1 0x24 ADD PUSH2 0xC08 JUMP JUMPDEST PUSH1 0x1 PUSH1 0x1 PUSH1 0xA0 SHL SUB DUP3 AND PUSH2 0xC74 JUMPI PUSH1 0x40 MLOAD PUSH4 0xEC442F05 PUSH1 0xE0 SHL DUP2 MSTORE PUSH1 0x0 PUSH1 0x4 DUP3 ADD MSTORE PUSH1 0x24 ADD PUSH2 0xC08 JUMP JUMPDEST PUSH2 0x7E3 DUP4 DUP4 DUP4 PUSH2 0x106B JUMP JUMPDEST PUSH2 0x7FB DUP2 CALLER PUSH2 0x1182 JUMP JUMPDEST PUSH1 0x0 PUSH2 0xC95 DUP4 DUP4 PUSH2 0x899 JUMP JUMPDEST PUSH2 0xD15 JUMPI PUSH1 0x0 DUP4 DUP2 MSTORE PUSH1 0x5 PUSH1 0x20 SWAP1 DUP2 MSTORE PUSH1 0x40 DUP1 DUP4 KECCAK256 PUSH1 0x1 PUSH1 0x1 PUSH1 0xA0 SHL SUB DUP7 AND DUP5 MSTORE SWAP1 SWAP2 MSTORE SWAP1 KECCAK256 DUP1 SLOAD PUSH1 0xFF NOT AND PUSH1 0x1 OR SWAP1 SSTORE PUSH2 0xCCD CALLER SWAP1 JUMP JUMPDEST PUSH1 0x1 PUSH1 0x1 PUSH1 0xA0 SHL SUB AND DUP3 PUSH1 0x1 PUSH1 0x1 PUSH1 0xA0 SHL SUB AND DUP5 PUSH32 0x2F8788117E7EFF1D82E926EC794901D17C78024A50270940304540A733656F0D PUSH1 0x40 MLOAD PUSH1 0x40 MLOAD DUP1 SWAP2 SUB SWAP1 LOG4 POP PUSH1 0x1 PUSH2 0x669 JUMP JUMPDEST POP PUSH1 0x0 PUSH2 0x669 JUMP JUMPDEST PUSH1 0x0 PUSH2 0xD29 DUP4 DUP4 PUSH2 0x899 JUMP JUMPDEST ISZERO PUSH2 0xD15 JUMPI PUSH1 0x0 DUP4 DUP2 MSTORE PUSH1 0x5 PUSH1 0x20 SWAP1 DUP2 MSTORE PUSH1 0x40 DUP1 DUP4 KECCAK256 PUSH1 0x1 PUSH1 0x1 PUSH1 0xA0 SHL SUB DUP7 AND DUP1 DUP6 MSTORE SWAP3 MSTORE DUP1 DUP4 KECCAK256 DUP1 SLOAD PUSH1 0xFF NOT AND SWAP1 SSTORE MLOAD CALLER SWAP3 DUP7 SWAP2 PUSH32 0xF6391F5C32D9C69D2A47EA670B442974B53935D1EDC7FD64EB21E047A839171B SWAP2 SWAP1 LOG4 POP PUSH1 0x1 PUSH2 0x669 JUMP JUMPDEST PUSH2 0xD92 PUSH2 0x11BF JUMP JUMPDEST PUSH1 0x7 DUP1 SLOAD PUSH1 0xFF NOT AND SWAP1 SSTORE PUSH32 0x5DB9EE0A495BF2E6FF9C91A7834C1BA4FDD244A5E8AA4E537BD38AEAE4B073AA CALLER JUMPDEST PUSH1 0x40 MLOAD PUSH1 0x1 PUSH1 0x1 PUSH1 0xA0 SHL SUB SWAP1 SWAP2 AND DUP2 MSTORE PUSH1 0x20 ADD PUSH1 0x40 MLOAD DUP1 SWAP2 SUB SWAP1 LOG1 JUMP JUMPDEST PUSH1 0x2 PUSH1 0x6 SLOAD SUB PUSH2 0xDFF JUMPI PUSH1 0x40 MLOAD PUSH4 0x3EE5AEB5 PUSH1 0xE0 SHL DUP2 MSTORE PUSH1 0x4 ADD PUSH1 0x40 MLOAD DUP1 SWAP2 SUB SWAP1 REVERT JUMPDEST PUSH1 0x2 PUSH1 0x6 SSTORE JUMP JUMPDEST PUSH1 0x7 SLOAD PUSH1 0xFF AND ISZERO PUSH2 0xAF5 JUMPI PUSH1 0x40 MLOAD PUSH4 0xD93C0665 PUSH1 0xE0 SHL DUP2 MSTORE PUSH1 0x4 ADD PUSH1 0x40 MLOAD DUP1 SWAP2 SUB SWAP1 REVERT JUMPDEST PUSH1 0x0 PUSH1 0x0 NOT PUSH1 0x0 PUSH2 0xE3A DUP6 PUSH2 0x940 JUMP JUMPDEST SWAP1 POP PUSH2 0xE48 CALLER DUP6 DUP8 DUP5 PUSH2 0x11E2 JUMP JUMPDEST SWAP5 SWAP4 POP POP POP POP JUMP JUMPDEST PUSH2 0xE58 PUSH2 0xE06 JUMP JUMPDEST PUSH1 0x7 DUP1 SLOAD PUSH1 0xFF NOT AND PUSH1 0x1 OR SWAP1 SSTORE PUSH32 0x62E78CEA01BEE320CD4E420270B5EA74000D11B0C9F74754EBDBFC544B05A258 PUSH2 0xDBF CALLER SWAP1 JUMP JUMPDEST PUSH1 0x0 PUSH1 0x0 NOT PUSH1 0x0 PUSH2 0xE9D DUP6 PUSH2 0x8FD JUMP JUMPDEST SWAP1 POP PUSH2 0xE48 CALLER DUP6 DUP4 DUP9 PUSH2 0x11E2 JUMP JUMPDEST PUSH1 0x0 DUP1 PUSH2 0xEB7 DUP4 PUSH2 0x94D JUMP JUMPDEST SWAP1 POP DUP1 DUP6 GT ISZERO PUSH2 0xEE0 JUMPI DUP3 DUP6 DUP3 PUSH1 0x40 MLOAD PUSH4 0x3FA733BB PUSH1 0xE2 SHL DUP2 MSTORE PUSH1 0x4 ADD PUSH2 0xC08 SWAP4 SWAP3 SWAP2 SWAP1 PUSH2 0x1956 JUMP JUMPDEST PUSH1 0x0 PUSH2 0xEEB DUP7 PUSH2 0x726 JUMP JUMPDEST SWAP1 POP PUSH2 0xEFA CALLER DUP7 DUP7 DUP10 DUP6 PUSH2 0x1266 JUMP JUMPDEST SWAP6 SWAP5 POP POP POP POP POP JUMP JUMPDEST PUSH1 0x0 DUP1 PUSH2 0xF0F DUP4 PUSH2 0xB1C JUMP JUMPDEST SWAP1 POP DUP1 DUP6 GT ISZERO PUSH2 0xF38 JUMPI DUP3 DUP6 DUP3 PUSH1 0x40 MLOAD PUSH4 0x2E52AFBB PUSH1 0xE2 SHL DUP2 MSTORE PUSH1 0x4 ADD PUSH2 0xC08 SWAP4 SWAP3 SWAP2 SWAP1 PUSH2 0x1956 JUMP JUMPDEST PUSH1 0x0 PUSH2 0xF43 DUP7 PUSH2 0x701 JUMP JUMPDEST SWAP1 POP PUSH2 0xEFA CALLER DUP7 DUP7 DUP5 DUP11 PUSH2 0x1266 JUMP JUMPDEST PUSH1 0x0 PUSH2 0xF81 PUSH2 0xF60 DUP4 PUSH2 0x1326 JUMP JUMPDEST DUP1 ISZERO PUSH2 0xF7C JUMPI POP PUSH1 0x0 DUP5 DUP1 PUSH2 0xF77 JUMPI PUSH2 0xF77 PUSH2 0x1977 JUMP JUMPDEST DUP7 DUP9 MULMOD GT JUMPDEST ISZERO ISZERO SWAP1 JUMP JUMPDEST PUSH2 0xF8C DUP7 DUP7 DUP7 PUSH2 0x1353 JUMP JUMPDEST PUSH2 0xEFA SWAP2 SWAP1 PUSH2 0x1850 JUMP JUMPDEST PUSH1 0x1 PUSH1 0x1 PUSH1 0xA0 SHL SUB DUP5 AND PUSH2 0xFC0 JUMPI PUSH1 0x40 MLOAD PUSH4 0xE602DF05 PUSH1 0xE0 SHL DUP2 MSTORE PUSH1 0x0 PUSH1 0x4 DUP3 ADD MSTORE PUSH1 0x24 ADD PUSH2 0xC08 JUMP JUMPDEST PUSH1 0x1 PUSH1 0x1 PUSH1 0xA0 SHL SUB DUP4 AND PUSH2 0xFEA JUMPI PUSH1 0x40 MLOAD PUSH4 0x4A1406B1 PUSH1 0xE1 SHL DUP2 MSTORE PUSH1 0x0 PUSH1 0x4 DUP3 ADD MSTORE PUSH1 0x24 ADD PUSH2 0xC08 JUMP JUMPDEST PUSH1 0x1 PUSH1 0x1 PUSH1 0xA0 SHL SUB DUP1 DUP6 AND PUSH1 0x0 SWAP1 DUP2 MSTORE PUSH1 0x1 PUSH1 0x20 SWAP1 DUP2 MSTORE PUSH1 0x40 DUP1 DUP4 KECCAK256 SWAP4 DUP8 AND DUP4 MSTORE SWAP3 SWAP1 MSTORE KECCAK256 DUP3 SWAP1 SSTORE DUP1 ISZERO PUSH2 0x77E JUMPI DUP3 PUSH1 0x1 PUSH1 0x1 PUSH1 0xA0 SHL SUB AND DUP5 PUSH1 0x1 PUSH1 0x1 PUSH1 0xA0 SHL SUB AND PUSH32 0x8C5BE1E5EBEC7D5BD14F71427D1E84F3DD0314C0F7B2291E5B200AC8C7C3B925 DUP5 PUSH1 0x40 MLOAD PUSH2 0x105D SWAP2 DUP2 MSTORE PUSH1 0x20 ADD SWAP1 JUMP JUMPDEST PUSH1 0x40 MLOAD DUP1 SWAP2 SUB SWAP1 LOG3 POP POP POP POP JUMP JUMPDEST PUSH1 0x1 PUSH1 0x1 PUSH1 0xA0 SHL SUB DUP4 AND PUSH2 0x1096 JUMPI DUP1 PUSH1 0x2 PUSH1 0x0 DUP3 DUP3 SLOAD PUSH2 0x108B SWAP2 SWAP1 PUSH2 0x1850 JUMP JUMPDEST SWAP1 SWAP2 SSTORE POP PUSH2 0x10F5 SWAP1 POP JUMP JUMPDEST PUSH1 0x1 PUSH1 0x1 PUSH1 0xA0 SHL SUB DUP4 AND PUSH1 0x0 SWAP1 DUP2 MSTORE PUSH1 0x20 DUP2 SWAP1 MSTORE PUSH1 0x40 SWAP1 KECCAK256 SLOAD DUP2 DUP2 LT ISZERO PUSH2 0x10D6 JUMPI DUP4 DUP2 DUP4 PUSH1 0x40 MLOAD PUSH4 0x391434E3 PUSH1 0xE2 SHL DUP2 MSTORE PUSH1 0x4 ADD PUSH2 0xC08 SWAP4 SWAP3 SWAP2 SWAP1 PUSH2 0x1956 JUMP JUMPDEST PUSH1 0x1 PUSH1 0x1 PUSH1 0xA0 SHL SUB DUP5 AND PUSH1 0x0 SWAP1 DUP2 MSTORE PUSH1 0x20 DUP2 SWAP1 MSTORE PUSH1 0x40 SWAP1 KECCAK256 SWAP1 DUP3 SWAP1 SUB SWAP1 SSTORE JUMPDEST PUSH1 0x1 PUSH1 0x1 PUSH1 0xA0 SHL SUB DUP3 AND PUSH2 0x1111 JUMPI PUSH1 0x2 DUP1 SLOAD DUP3 SWAP1 SUB SWAP1 SSTORE PUSH2 0x1130 JUMP JUMPDEST PUSH1 0x1 PUSH1 0x1 PUSH1 0xA0 SHL SUB DUP3 AND PUSH1 0x0 SWAP1 DUP2 MSTORE PUSH1 0x20 DUP2 SWAP1 MSTORE PUSH1 0x40 SWAP1 KECCAK256 DUP1 SLOAD DUP3 ADD SWAP1 SSTORE JUMPDEST DUP2 PUSH1 0x1 PUSH1 0x1 PUSH1 0xA0 SHL SUB AND DUP4 PUSH1 0x1 PUSH1 0x1 PUSH1 0xA0 SHL SUB AND PUSH32 0xDDF252AD1BE2C89B69C2B068FC378DAA952BA7F163C4A11628F55A4DF523B3EF DUP4 PUSH1 0x40 MLOAD PUSH2 0x1175 SWAP2 DUP2 MSTORE PUSH1 0x20 ADD SWAP1 JUMP JUMPDEST PUSH1 0x40 MLOAD DUP1 SWAP2 SUB SWAP1 LOG3 POP POP POP JUMP JUMPDEST PUSH2 0x118C DUP3 DUP3 PUSH2 0x899 JUMP JUMPDEST PUSH2 0x11BB JUMPI PUSH1 0x40 MLOAD PUSH4 0xE2517D3F PUSH1 0xE0 SHL DUP2 MSTORE PUSH1 0x1 PUSH1 0x1 PUSH1 0xA0 SHL SUB DUP3 AND PUSH1 0x4 DUP3 ADD MSTORE PUSH1 0x24 DUP2 ADD DUP4 SWAP1 MSTORE PUSH1 0x44 ADD PUSH2 0xC08 JUMP JUMPDEST POP POP JUMP JUMPDEST PUSH1 0x7 SLOAD PUSH1 0xFF AND PUSH2 0xAF5 JUMPI PUSH1 0x40 MLOAD PUSH4 0x8DFC202B PUSH1 0xE0 SHL DUP2 MSTORE PUSH1 0x4 ADD PUSH1 0x40 MLOAD DUP1 SWAP2 SUB SWAP1 REVERT JUMPDEST PUSH2 0x120E PUSH32 0x0 DUP6 ADDRESS DUP6 PUSH2 0x1408 JUMP JUMPDEST PUSH2 0x1218 DUP4 DUP3 PUSH2 0x146F JUMP JUMPDEST DUP3 PUSH1 0x1 PUSH1 0x1 PUSH1 0xA0 SHL SUB AND DUP5 PUSH1 0x1 PUSH1 0x1 PUSH1 0xA0 SHL SUB AND PUSH32 0xDCBC1C05240F31FF3AD067EF1EE35CE4997762752E3A095284754544F4C709D7 DUP5 DUP5 PUSH1 0x40 MLOAD PUSH2 0x105D SWAP3 SWAP2 SWAP1 SWAP2 DUP3 MSTORE PUSH1 0x20 DUP3 ADD MSTORE PUSH1 0x40 ADD SWAP1 JUMP JUMPDEST DUP3 PUSH1 0x1 PUSH1 0x1 PUSH1 0xA0 SHL SUB AND DUP6 PUSH1 0x1 PUSH1 0x1 PUSH1 0xA0 SHL SUB AND EQ PUSH2 0x128A JUMPI PUSH2 0x128A DUP4 DUP7 DUP4 PUSH2 0xBB1 JUMP JUMPDEST PUSH2 0x1294 DUP4 DUP3 PUSH2 0x14A5 JUMP JUMPDEST PUSH2 0x12BF PUSH32 0x0 DUP6 DUP5 PUSH2 0x14DB JUMP JUMPDEST DUP3 PUSH1 0x1 PUSH1 0x1 PUSH1 0xA0 SHL SUB AND DUP5 PUSH1 0x1 PUSH1 0x1 PUSH1 0xA0 SHL SUB AND DUP7 PUSH1 0x1 PUSH1 0x1 PUSH1 0xA0 SHL SUB AND PUSH32 0xFBDE797D201C681B91056529119E0B02407C7BB96A4A2C75C01FC9667232C8DB DUP6 DUP6 PUSH1 0x40 MLOAD PUSH2 0x1317 SWAP3 SWAP2 SWAP1 SWAP2 DUP3 MSTORE PUSH1 0x20 DUP3 ADD MSTORE PUSH1 0x40 ADD SWAP1 JUMP JUMPDEST PUSH1 0x40 MLOAD DUP1 SWAP2 SUB SWAP1 LOG4 POP POP POP POP POP JUMP JUMPDEST PUSH1 0x0 PUSH1 0x2 DUP3 PUSH1 0x3 DUP2 GT ISZERO PUSH2 0x133C JUMPI PUSH2 0x133C PUSH2 0x1707 JUMP JUMPDEST PUSH2 0x1346 SWAP2 SWAP1 PUSH2 0x198D JUMP JUMPDEST PUSH1 0xFF AND PUSH1 0x1 EQ SWAP1 POP SWAP2 SWAP1 POP JUMP JUMPDEST PUSH1 0x0 DUP1 PUSH1 0x0 PUSH2 0x1362 DUP7 DUP7 PUSH2 0x150C JUMP JUMPDEST SWAP2 POP SWAP2 POP DUP2 PUSH1 0x0 SUB PUSH2 0x1387 JUMPI DUP4 DUP2 DUP2 PUSH2 0x137D JUMPI PUSH2 0x137D PUSH2 0x1977 JUMP JUMPDEST DIV SWAP3 POP POP POP PUSH2 0x752 JUMP JUMPDEST DUP2 DUP5 GT PUSH2 0x139E JUMPI PUSH2 0x139E PUSH1 0x3 DUP6 ISZERO MUL PUSH1 0x11 XOR PUSH2 0x152A JUMP JUMPDEST PUSH1 0x0 DUP5 DUP7 DUP9 MULMOD PUSH1 0x0 DUP7 DUP2 SUB DUP8 AND SWAP7 DUP8 SWAP1 DIV SWAP7 PUSH1 0x2 PUSH1 0x3 DUP10 MUL DUP2 XOR DUP1 DUP11 MUL DUP3 SUB MUL DUP1 DUP11 MUL DUP3 SUB MUL DUP1 DUP11 MUL DUP3 SUB MUL DUP1 DUP11 MUL DUP3 SUB MUL DUP1 DUP11 MUL DUP3 SUB MUL DUP1 DUP11 MUL SWAP1 SWAP2 SUB MUL SWAP2 DUP2 SWAP1 SUB DUP2 SWAP1 DIV PUSH1 0x1 ADD DUP6 DUP5 GT SWAP1 SWAP7 SUB SWAP6 SWAP1 SWAP6 MUL SWAP2 SWAP1 SWAP4 SUB SWAP4 SWAP1 SWAP4 DIV SWAP3 SWAP1 SWAP3 OR MUL SWAP2 POP POP SWAP4 SWAP3 POP POP POP JUMP JUMPDEST PUSH1 0x40 MLOAD PUSH1 0x1 PUSH1 0x1 PUSH1 0xA0 SHL SUB DUP5 DUP2 AND PUSH1 0x24 DUP4 ADD MSTORE DUP4 DUP2 AND PUSH1 0x44 DUP4 ADD MSTORE PUSH1 0x64 DUP3 ADD DUP4 SWAP1 MSTORE PUSH2 0x77E SWAP2 DUP7 SWAP2 DUP3 AND SWAP1 PUSH4 0x23B872DD SWAP1 PUSH1 0x84 ADD JUMPDEST PUSH1 0x40 MLOAD PUSH1 0x20 DUP2 DUP4 SUB SUB DUP2 MSTORE SWAP1 PUSH1 0x40 MSTORE SWAP2 POP PUSH1 0xE0 SHL PUSH1 0x20 DUP3 ADD DUP1 MLOAD PUSH1 0x1 PUSH1 0x1 PUSH1 0xE0 SHL SUB DUP4 DUP2 DUP4 AND OR DUP4 MSTORE POP POP POP POP PUSH2 0x153C JUMP JUMPDEST PUSH1 0x1 PUSH1 0x1 PUSH1 0xA0 SHL SUB DUP3 AND PUSH2 0x1499 JUMPI PUSH1 0x40 MLOAD PUSH4 0xEC442F05 PUSH1 0xE0 SHL DUP2 MSTORE PUSH1 0x0 PUSH1 0x4 DUP3 ADD MSTORE PUSH1 0x24 ADD PUSH2 0xC08 JUMP JUMPDEST PUSH2 0x11BB PUSH1 0x0 DUP4 DUP4 PUSH2 0x106B JUMP JUMPDEST PUSH1 0x1 PUSH1 0x1 PUSH1 0xA0 SHL SUB DUP3 AND PUSH2 0x14CF JUMPI PUSH1 0x40 MLOAD PUSH4 0x4B637E8F PUSH1 0xE1 SHL DUP2 MSTORE PUSH1 0x0 PUSH1 0x4 DUP3 ADD MSTORE PUSH1 0x24 ADD PUSH2 0xC08 JUMP JUMPDEST PUSH2 0x11BB DUP3 PUSH1 0x0 DUP4 PUSH2 0x106B JUMP JUMPDEST PUSH1 0x40 MLOAD PUSH1 0x1 PUSH1 0x1 PUSH1 0xA0 SHL SUB DUP4 DUP2 AND PUSH1 0x24 DUP4 ADD MSTORE PUSH1 0x44 DUP3 ADD DUP4 SWAP1 MSTORE PUSH2 0x7E3 SWAP2 DUP6 SWAP2 DUP3 AND SWAP1 PUSH4 0xA9059CBB SWAP1 PUSH1 0x64 ADD PUSH2 0x143D JUMP JUMPDEST PUSH1 0x0 DUP1 PUSH1 0x0 NOT DUP4 DUP6 MULMOD SWAP4 SWAP1 SWAP3 MUL DUP1 DUP5 LT SWAP4 DUP2 SWAP1 SUB SWAP4 SWAP1 SWAP4 SUB SWAP4 SWAP2 POP POP JUMP JUMPDEST PUSH4 0x4E487B71 PUSH1 0x0 MSTORE DUP1 PUSH1 0x20 MSTORE PUSH1 0x24 PUSH1 0x1C REVERT JUMPDEST PUSH1 0x0 DUP1 PUSH1 0x20 PUSH1 0x0 DUP5 MLOAD PUSH1 0x20 DUP7 ADD PUSH1 0x0 DUP9 GAS CALL DUP1 PUSH2 0x155F JUMPI PUSH1 0x40 MLOAD RETURNDATASIZE PUSH1 0x0 DUP3 RETURNDATACOPY RETURNDATASIZE DUP2 REVERT JUMPDEST POP POP PUSH1 0x0 MLOAD RETURNDATASIZE SWAP2 POP DUP2 ISZERO PUSH2 0x1577 JUMPI DUP1 PUSH1 0x1 EQ ISZERO PUSH2 0x1584 JUMP JUMPDEST PUSH1 0x1 PUSH1 0x1 PUSH1 0xA0 SHL SUB DUP5 AND EXTCODESIZE ISZERO JUMPDEST ISZERO PUSH2 0x77E JUMPI PUSH1 0x40 MLOAD PUSH4 0x5274AFE7 PUSH1 0xE0 SHL DUP2 MSTORE PUSH1 0x1 PUSH1 0x1 PUSH1 0xA0 SHL SUB DUP6 AND PUSH1 0x4 DUP3 ADD MSTORE PUSH1 0x24 ADD PUSH2 0xC08 JUMP JUMPDEST PUSH1 0x0 PUSH1 0x20 DUP3 DUP5 SUB SLT ISZERO PUSH2 0x15BF JUMPI PUSH1 0x0 DUP1 REVERT JUMPDEST DUP2 CALLDATALOAD PUSH1 0x1 PUSH1 0x1 PUSH1 0xE0 SHL SUB NOT DUP2 AND DUP2 EQ PUSH2 0x752 JUMPI PUSH1 0x0 DUP1 REVERT JUMPDEST PUSH1 0x0 PUSH1 0x20 DUP1 DUP4 MSTORE DUP4 MLOAD DUP1 DUP3 DUP6 ADD MSTORE PUSH1 0x0 JUMPDEST DUP2 DUP2 LT ISZERO PUSH2 0x1604 JUMPI DUP6 DUP2 ADD DUP4 ADD MLOAD DUP6 DUP3 ADD PUSH1 0x40 ADD MSTORE DUP3 ADD PUSH2 0x15E8 JUMP JUMPDEST POP PUSH1 0x0 PUSH1 0x40 DUP3 DUP7 ADD ADD MSTORE PUSH1 0x40 PUSH1 0x1F NOT PUSH1 0x1F DUP4 ADD AND DUP6 ADD ADD SWAP3 POP POP POP SWAP3 SWAP2 POP POP JUMP JUMPDEST PUSH1 0x0 PUSH1 0x20 DUP3 DUP5 SUB SLT ISZERO PUSH2 0x1637 JUMPI PUSH1 0x0 DUP1 REVERT JUMPDEST POP CALLDATALOAD SWAP2 SWAP1 POP JUMP JUMPDEST DUP1 CALLDATALOAD PUSH1 0x1 PUSH1 0x1 PUSH1 0xA0 SHL SUB DUP2 AND DUP2 EQ PUSH2 0x1655 JUMPI PUSH1 0x0 DUP1 REVERT JUMPDEST SWAP2 SWAP1 POP JUMP JUMPDEST PUSH1 0x0 DUP1 PUSH1 0x40 DUP4 DUP6 SUB SLT ISZERO PUSH2 0x166D JUMPI PUSH1 0x0 DUP1 REVERT JUMPDEST PUSH2 0x1676 DUP4 PUSH2 0x163E JUMP JUMPDEST SWAP5 PUSH1 0x20 SWAP4 SWAP1 SWAP4 ADD CALLDATALOAD SWAP4 POP POP POP JUMP JUMPDEST PUSH1 0x0 DUP1 PUSH1 0x0 PUSH1 0x60 DUP5 DUP7 SUB SLT ISZERO PUSH2 0x1699 JUMPI PUSH1 0x0 DUP1 REVERT JUMPDEST PUSH2 0x16A2 DUP5 PUSH2 0x163E JUMP JUMPDEST SWAP3 POP PUSH2 0x16B0 PUSH1 0x20 DUP6 ADD PUSH2 0x163E JUMP JUMPDEST SWAP2 POP PUSH1 0x40 DUP5 ADD CALLDATALOAD SWAP1 POP SWAP3 POP SWAP3 POP SWAP3 JUMP JUMPDEST PUSH1 0x0 DUP1 PUSH1 0x40 DUP4 DUP6 SUB SLT ISZERO PUSH2 0x16D3 JUMPI PUSH1 0x0 DUP1 REVERT JUMPDEST DUP3 CALLDATALOAD SWAP2 POP PUSH2 0x16E3 PUSH1 0x20 DUP5 ADD PUSH2 0x163E JUMP JUMPDEST SWAP1 POP SWAP3 POP SWAP3 SWAP1 POP JUMP JUMPDEST PUSH1 0x0 PUSH1 0x20 DUP3 DUP5 SUB SLT ISZERO PUSH2 0x16FE JUMPI PUSH1 0x0 DUP1 REVERT JUMPDEST PUSH2 0x752 DUP3 PUSH2 0x163E JUMP JUMPDEST PUSH4 0x4E487B71 PUSH1 0xE0 SHL PUSH1 0x0 MSTORE PUSH1 0x21 PUSH1 0x4 MSTORE PUSH1 0x24 PUSH1 0x0 REVERT JUMPDEST PUSH1 0x2 DUP2 LT PUSH2 0x173B JUMPI PUSH4 0x4E487B71 PUSH1 0xE0 SHL PUSH1 0x0 MSTORE PUSH1 0x21 PUSH1 0x4 MSTORE PUSH1 0x24 PUSH1 0x0 REVERT JUMPDEST SWAP1 MSTORE JUMP JUMPDEST PUSH1 0x20 DUP2 ADD PUSH2 0x669 DUP3 DUP5 PUSH2 0x171D JUMP JUMPDEST PUSH1 0x0 DUP1 PUSH1 0x0 PUSH1 0x60 DUP5 DUP7 SUB SLT ISZERO PUSH2 0x1762 JUMPI PUSH1 0x0 DUP1 REVERT JUMPDEST DUP4 CALLDATALOAD SWAP3 POP PUSH2 0x1772 PUSH1 0x20 DUP6 ADD PUSH2 0x163E JUMP JUMPDEST SWAP2 POP PUSH2 0x1780 PUSH1 0x40 DUP6 ADD PUSH2 0x163E JUMP JUMPDEST SWAP1 POP SWAP3 POP SWAP3 POP SWAP3 JUMP JUMPDEST PUSH1 0x0 DUP1 PUSH1 0x40 DUP4 DUP6 SUB SLT ISZERO PUSH2 0x179C JUMPI PUSH1 0x0 DUP1 REVERT JUMPDEST PUSH2 0x17A5 DUP4 PUSH2 0x163E JUMP JUMPDEST SWAP2 POP PUSH2 0x16E3 PUSH1 0x20 DUP5 ADD PUSH2 0x163E JUMP JUMPDEST PUSH1 0x0 PUSH1 0x20 DUP3 DUP5 SUB SLT ISZERO PUSH2 0x17C5 JUMPI PUSH1 0x0 DUP1 REVERT JUMPDEST POP MLOAD SWAP2 SWAP1 POP JUMP JUMPDEST PUSH1 0x1 DUP2 DUP2 SHR SWAP1 DUP3 AND DUP1 PUSH2 0x17E0 JUMPI PUSH1 0x7F DUP3 AND SWAP2 POP JUMPDEST PUSH1 0x20 DUP3 LT DUP2 SUB PUSH2 0x1800 JUMPI PUSH4 0x4E487B71 PUSH1 0xE0 SHL PUSH1 0x0 MSTORE PUSH1 0x22 PUSH1 0x4 MSTORE PUSH1 0x24 PUSH1 0x0 REVERT JUMPDEST POP SWAP2 SWAP1 POP JUMP JUMPDEST PUSH4 0x4E487B71 PUSH1 0xE0 SHL PUSH1 0x0 MSTORE PUSH1 0x11 PUSH1 0x4 MSTORE PUSH1 0x24 PUSH1 0x0 REVERT JUMPDEST PUSH1 0xFF DUP2 DUP2 AND DUP4 DUP3 AND ADD SWAP1 DUP2 GT ISZERO PUSH2 0x669 JUMPI PUSH2 0x669 PUSH2 0x1806 JUMP JUMPDEST PUSH1 0x40 DUP2 ADD PUSH2 0x1843 DUP3 DUP6 PUSH2 0x171D JUMP JUMPDEST DUP3 PUSH1 0x20 DUP4 ADD MSTORE SWAP4 SWAP3 POP POP POP JUMP JUMPDEST DUP1 DUP3 ADD DUP1 DUP3 GT ISZERO PUSH2 0x669 JUMPI PUSH2 0x669 PUSH2 0x1806 JUMP JUMPDEST PUSH1 0x1 DUP2 DUP2 JUMPDEST DUP1 DUP6 GT ISZERO PUSH2 0x189E JUMPI DUP2 PUSH1 0x0 NOT DIV DUP3 GT ISZERO PUSH2 0x1884 JUMPI PUSH2 0x1884 PUSH2 0x1806 JUMP JUMPDEST DUP1 DUP6 AND ISZERO PUSH2 0x1891 JUMPI SWAP2 DUP2 MUL SWAP2 JUMPDEST SWAP4 DUP5 SHR SWAP4 SWAP1 DUP1 MUL SWAP1 PUSH2 0x1868 JUMP JUMPDEST POP SWAP3 POP SWAP3 SWAP1 POP JUMP JUMPDEST PUSH1 0x0 DUP3 PUSH2 0x18B5 JUMPI POP PUSH1 0x1 PUSH2 0x669 JUMP JUMPDEST DUP2 PUSH2 0x18C2 JUMPI POP PUSH1 0x0 PUSH2 0x669 JUMP JUMPDEST DUP2 PUSH1 0x1 DUP2 EQ PUSH2 0x18D8 JUMPI PUSH1 0x2 DUP2 EQ PUSH2 0x18E2 JUMPI PUSH2 0x18FE JUMP JUMPDEST PUSH1 0x1 SWAP2 POP POP PUSH2 0x669 JUMP JUMPDEST PUSH1 0xFF DUP5 GT ISZERO PUSH2 0x18F3 JUMPI PUSH2 0x18F3 PUSH2 0x1806 JUMP JUMPDEST POP POP PUSH1 0x1 DUP3 SHL PUSH2 0x669 JUMP JUMPDEST POP PUSH1 0x20 DUP4 LT PUSH2 0x133 DUP4 LT AND PUSH1 0x4E DUP5 LT PUSH1 0xB DUP5 LT AND OR ISZERO PUSH2 0x1921 JUMPI POP DUP2 DUP2 EXP PUSH2 0x669 JUMP JUMPDEST PUSH2 0x192B DUP4 DUP4 PUSH2 0x1863 JUMP JUMPDEST DUP1 PUSH1 0x0 NOT DIV DUP3 GT ISZERO PUSH2 0x193F JUMPI PUSH2 0x193F PUSH2 0x1806 JUMP JUMPDEST MUL SWAP4 SWAP3 POP POP POP JUMP JUMPDEST PUSH1 0x0 PUSH2 0x752 PUSH1 0xFF DUP5 AND DUP4 PUSH2 0x18A6 JUMP JUMPDEST PUSH1 0x1 PUSH1 0x1 PUSH1 0xA0 SHL SUB SWAP4 SWAP1 SWAP4 AND DUP4 MSTORE PUSH1 0x20 DUP4 ADD SWAP2 SWAP1 SWAP2 MSTORE PUSH1 0x40 DUP3 ADD MSTORE PUSH1 0x60 ADD SWAP1 JUMP JUMPDEST PUSH4 0x4E487B71 PUSH1 0xE0 SHL PUSH1 0x0 MSTORE PUSH1 0x12 PUSH1 0x4 MSTORE PUSH1 0x24 PUSH1 0x0 REVERT JUMPDEST PUSH1 0x0 PUSH1 0xFF DUP4 AND DUP1 PUSH2 0x19AE JUMPI PUSH4 0x4E487B71 PUSH1 0xE0 SHL PUSH1 0x0 MSTORE PUSH1 0x12 PUSH1 0x4 MSTORE PUSH1 0x24 PUSH1 0x0 REVERT JUMPDEST DUP1 PUSH1 0xFF DUP5 AND MOD SWAP2 POP POP SWAP3 SWAP2 POP POP JUMP INVALID LOG2 PUSH5 0x6970667358 0x22 SLT KECCAK256 0xE3 0xE0 SUB 0xC3 CREATE GAS ADDMOD SWAP11 ADDRESS 0x26 CALLDATACOPY NUMBER MSTORE8 DUP15 0x2B 0xC0 SELFBALANCE POP 0xAD 0xE5 SWAP7 NUMBER CALLVALUE 0x4A JUMPDEST ADD MUL SUB PUSH0 DUP1 0xC9 0xF8 PUSH5 0x736F6C6343 STOP ADDMOD EQ STOP CALLER "},"methodIdentifiers":{"DEFAULT_ADMIN_ROLE()":"a217fddf","KEEPER_ROLE()":"364bc15a","VOLATILITY_THRESHOLD_HIGH()":"09d524ab","VOLATILITY_THRESHOLD_LOW()":"d70385be","adapt()":"d5377ab3","allowance(address,address)":"dd62ed3e","approve(address,uint256)":"095ea7b3","asset()":"38d52e0f","balanceOf(address)":"70a08231","convertToAssets(uint256)":"07a2d13a","convertToShares(uint256)":"c6e6f592","currentMode()":"8125092f","decimals()":"313ce567","deposit(uint256,address)":"6e553f65","getRoleAdmin(bytes32)":"248a9ca3","grantRole(bytes32,address)":"2f2ff15d","hasRole(bytes32,address)":"91d14854","maxDeposit(address)":"402d267d","maxMint(address)":"c63d75b6","maxRedeem(address)":"d905777e","maxWithdraw(address)":"ce96cb77","mint(uint256,address)":"94bf804d","name()":"06fdde03","oracle()":"7dc0d1d0","pause()":"8456cb59","paused()":"5c975abb","previewDeposit(uint256)":"ef8b30f7","previewMint(uint256)":"b3d7f6b9","previewRedeem(uint256)":"4cdad506","previewWithdraw(uint256)":"0a28a477","redeem(uint256,address,address)":"ba087652","renounceRole(bytes32,address)":"36568abe","revokeRole(bytes32,address)":"d547741f","setOracle(address)":"7adbf973","supportsInterface(bytes4)":"01ffc9a7","symbol()":"95d89b41","totalAssets()":"01e1d114","totalSupply()":"18160ddd","transfer(address,uint256)":"a9059cbb","transferFrom(address,address,uint256)":"23b872dd","unpause()":"3f4ba83a","withdraw(uint256,address,address)":"b460af94"}}}}}