{
  "_format": "hh-sol-artifact-1",
  "contractName": "StrategyManager",
  "sourceName": "contracts/StrategyManager.sol",
  "abi": [
    {
      "inputs": [
        {
          "internalType": "address",
          "name": "_vault",
          "type": "address"
        }
      ],
      "stateMutability": "nonpayable",
      "type": "constructor"
    },
    {
      "inputs": [],
      "name": "AccessControlBadConfirmation",
      "type": "error"
    },
    {
      "inputs": [
        {
          "internalType": "address",
          "name": "account",
          "type": "address"
        },
        {
          "internalType": "bytes32",
          "name": "neededRole",
          "type": "bytes32"
        }
      ],
      "name": "AccessControlUnauthorizedAccount",
      "type": "error"
    },
    {
      "anonymous": false,
      "inputs": [
        {
          "indexed": false,
          "internalType": "enum CitadelVault.Mode",
          "name": "mode",
          "type": "uint8"
        },
        {
          "indexed": false,
          "internalType": "address",
          "name": "strategy",
          "type": "address"
        },
        {
          "indexed": false,
          "internalType": "uint256",
          "name": "weight",
          "type": "uint256"
        }
      ],
      "name": "AllocationUpdated",
      "type": "event"
    },
    {
      "anonymous": false,
      "inputs": [
        {
          "indexed": false,
          "internalType": "enum CitadelVault.Mode",
          "name": "mode",
          "type": "uint8"
        }
      ],
      "name": "Rebalanced",
      "type": "event"
    },
    {
      "anonymous": false,
      "inputs": [
        {
          "indexed": true,
          "internalType": "bytes32",
          "name": "role",
          "type": "bytes32"
        },
        {
          "indexed": true,
          "internalType": "bytes32",
          "name": "previousAdminRole",
          "type": "bytes32"
        },
        {
          "indexed": true,
          "internalType": "bytes32",
          "name": "newAdminRole",
          "type": "bytes32"
        }
      ],
      "name": "RoleAdminChanged",
      "type": "event"
    },
    {
      "anonymous": false,
      "inputs": [
        {
          "indexed": true,
          "internalType": "bytes32",
          "name": "role",
          "type": "bytes32"
        },
        {
          "indexed": true,
          "internalType": "address",
          "name": "account",
          "type": "address"
        },
        {
          "indexed": true,
          "internalType": "address",
          "name": "sender",
          "type": "address"
        }
      ],
      "name": "RoleGranted",
      "type": "event"
    },
    {
      "anonymous": false,
      "inputs": [
        {
          "indexed": true,
          "internalType": "bytes32",
          "name": "role",
          "type": "bytes32"
        },
        {
          "indexed": true,
          "internalType": "address",
          "name": "account",
          "type": "address"
        },
        {
          "indexed": true,
          "internalType": "address",
          "name": "sender",
          "type": "address"
        }
      ],
      "name": "RoleRevoked",
      "type": "event"
    },
    {
      "inputs": [],
      "name": "DEFAULT_ADMIN_ROLE",
      "outputs": [
        {
          "internalType": "bytes32",
          "name": "",
          "type": "bytes32"
        }
      ],
      "stateMutability": "view",
      "type": "function"
    },
    {
      "inputs": [],
      "name": "STRATEGIST_ROLE",
      "outputs": [
        {
          "internalType": "bytes32",
          "name": "",
          "type": "bytes32"
        }
      ],
      "stateMutability": "view",
      "type": "function"
    },
    {
      "inputs": [
        {
          "internalType": "address",
          "name": "_strategy",
          "type": "address"
        }
      ],
      "name": "addStrategy",
      "outputs": [],
      "stateMutability": "nonpayable",
      "type": "function"
    },
    {
      "inputs": [],
      "name": "getNetAPY",
      "outputs": [
        {
          "internalType": "uint256",
          "name": "",
          "type": "uint256"
        }
      ],
      "stateMutability": "view",
      "type": "function"
    },
    {
      "inputs": [
        {
          "internalType": "bytes32",
          "name": "role",
          "type": "bytes32"
        }
      ],
      "name": "getRoleAdmin",
      "outputs": [
        {
          "internalType": "bytes32",
          "name": "",
          "type": "bytes32"
        }
      ],
      "stateMutability": "view",
      "type": "function"
    },
    {
      "inputs": [
        {
          "internalType": "address",
          "name": "_strategy",
          "type": "address"
        }
      ],
      "name": "getTargetAllocation",
      "outputs": [
        {
          "internalType": "uint256",
          "name": "",
          "type": "uint256"
        }
      ],
      "stateMutability": "view",
      "type": "function"
    },
    {
      "inputs": [
        {
          "internalType": "bytes32",
          "name": "role",
          "type": "bytes32"
        },
        {
          "internalType": "address",
          "name": "account",
          "type": "address"
        }
      ],
      "name": "grantRole",
      "outputs": [],
      "stateMutability": "nonpayable",
      "type": "function"
    },
    {
      "inputs": [
        {
          "internalType": "bytes32",
          "name": "role",
          "type": "bytes32"
        },
        {
          "internalType": "address",
          "name": "account",
          "type": "address"
        }
      ],
      "name": "hasRole",
      "outputs": [
        {
          "internalType": "bool",
          "name": "",
          "type": "bool"
        }
      ],
      "stateMutability": "view",
      "type": "function"
    },
    {
      "inputs": [],
      "name": "rebalance",
      "outputs": [],
      "stateMutability": "nonpayable",
      "type": "function"
    },
    {
      "inputs": [
        {
          "internalType": "bytes32",
          "name": "role",
          "type": "bytes32"
        },
        {
          "internalType": "address",
          "name": "callerConfirmation",
          "type": "address"
        }
      ],
      "name": "renounceRole",
      "outputs": [],
      "stateMutability": "nonpayable",
      "type": "function"
    },
    {
      "inputs": [
        {
          "internalType": "bytes32",
          "name": "role",
          "type": "bytes32"
        },
        {
          "internalType": "address",
          "name": "account",
          "type": "address"
        }
      ],
      "name": "revokeRole",
      "outputs": [],
      "stateMutability": "nonpayable",
      "type": "function"
    },
    {
      "inputs": [
        {
          "internalType": "enum CitadelVault.Mode",
          "name": "_mode",
          "type": "uint8"
        },
        {
          "internalType": "address",
          "name": "_strategy",
          "type": "address"
        },
        {
          "internalType": "uint256",
          "name": "_weight",
          "type": "uint256"
        }
      ],
      "name": "setAllocation",
      "outputs": [],
      "stateMutability": "nonpayable",
      "type": "function"
    },
    {
      "inputs": [
        {
          "internalType": "uint256",
          "name": "",
          "type": "uint256"
        }
      ],
      "name": "strategies",
      "outputs": [
        {
          "internalType": "address",
          "name": "",
          "type": "address"
        }
      ],
      "stateMutability": "view",
      "type": "function"
    },
    {
      "inputs": [
        {
          "internalType": "bytes4",
          "name": "interfaceId",
          "type": "bytes4"
        }
      ],
      "name": "supportsInterface",
      "outputs": [
        {
          "internalType": "bool",
          "name": "",
          "type": "bool"
        }
      ],
      "stateMutability": "view",
      "type": "function"
    },
    {
      "inputs": [
        {
          "internalType": "enum CitadelVault.Mode",
          "name": "",
          "type": "uint8"
        },
        {
          "internalType": "address",
          "name": "",
          "type": "address"
        }
      ],
      "name": "targetAllocations",
      "outputs": [
        {
          "internalType": "uint256",
          "name": "",
          "type": "uint256"
        }
      ],
      "stateMutability": "view",
      "type": "function"
    },
    {
      "inputs": [],
      "name": "vault",
      "outputs": [
        {
          "internalType": "contract CitadelVault",
          "name": "",
          "type": "address"
        }
      ],
      "stateMutability": "view",
      "type": "function"
    }
  ],
  "bytecode": "0x608060405234801561001057600080fd5b50604051610d73380380610d7383398101604081905261002f91610133565b600180546001600160a01b0319166001600160a01b038316179055610055600033610087565b506100807f17a8e30262c1f919c33056d877a3c22b95c2f5e4dac44683c1c2323cd79fbdb033610087565b5050610163565b6000828152602081815260408083206001600160a01b038516845290915281205460ff16610129576000838152602081815260408083206001600160a01b03861684529091529020805460ff191660011790556100e13390565b6001600160a01b0316826001600160a01b0316847f2f8788117e7eff1d82e926ec794901d17c78024a50270940304540a733656f0d60405160405180910390a450600161012d565b5060005b92915050565b60006020828403121561014557600080fd5b81516001600160a01b038116811461015c57600080fd5b9392505050565b610c01806101726000396000f3fe608060405234801561001057600080fd5b50600436106101005760003560e01c806384c4842211610097578063a378a32411610066578063a378a32414610215578063d547741f1461023c578063d574ea3d1461024f578063fbfa77cf1461027a57600080fd5b806384c48422146101bc5780638b25611f146101cf57806391d14854146101fa578063a217fddf1461020d57600080fd5b80632f2ff15d116100d35780632f2ff15d1461017b57806336568abe1461018e5780634e235515146101a15780637d7c2a1c146101b457600080fd5b806301ffc9a7146101055780631762e0bb1461012d578063223e547914610143578063248a9ca314610158575b600080fd5b610118610113366004610972565b61028d565b60405190151581526020015b60405180910390f35b6101356102c4565b604051908152602001610124565b6101566101513660046109bf565b610479565b005b6101356101663660046109da565b60009081526020819052604090206001015490565b6101566101893660046109f3565b6104d7565b61015661019c3660046109f3565b610502565b6101566101af366004610a2c565b61053a565b610156610602565b6101356101ca3660046109bf565b6106d7565b6101356101dd366004610a6a565b600260209081526000928352604080842090915290825290205481565b6101186102083660046109f3565b6107af565b610135600081565b6101357f17a8e30262c1f919c33056d877a3c22b95c2f5e4dac44683c1c2323cd79fbdb081565b61015661024a3660046109f3565b6107d8565b61026261025d3660046109da565b6107fd565b6040516001600160a01b039091168152602001610124565b600154610262906001600160a01b031681565b60006001600160e01b03198216637965db0b60e01b14806102be57506301ffc9a760e01b6001600160e01b03198316145b92915050565b600080600160009054906101000a90046001600160a01b03166001600160a01b0316638125092f6040518163ffffffff1660e01b8152600401602060405180830381865afa15801561031a573d6000803e3d6000fd5b505050506040513d601f19601f8201168201806040525081019061033e9190610a96565b90506000805b6003548110156104725760006003828154811061036357610363610ab3565b60009182526020822001546001600160a01b0316915060028186600181111561038e5761038e610ac9565b600181111561039f5761039f610ac9565b81526020019081526020016000206000836001600160a01b03166001600160a01b031681526020019081526020016000205490506000826001600160a01b0316636999ac936040518163ffffffff1660e01b8152600401602060405180830381865afa158015610413573d6000803e3d6000fd5b505050506040513d601f19601f820116820180604052508101906104379190610adf565b90506127106104468284610b0e565b6104509190610b25565b61045a9086610b47565b9450505050808061046a90610b5a565b915050610344565b5092915050565b600061048481610827565b50600380546001810182556000919091527fc2575a0e9e593c00f959f8c92f12db2869c3395a3b0502d05e2516446f71f85b0180546001600160a01b0319166001600160a01b0392909216919091179055565b6000828152602081905260409020600101546104f281610827565b6104fc8383610834565b50505050565b6001600160a01b038116331461052b5760405163334bd91960e11b815260040160405180910390fd5b61053582826108c6565b505050565b7f17a8e30262c1f919c33056d877a3c22b95c2f5e4dac44683c1c2323cd79fbdb061056481610827565b816002600086600181111561057b5761057b610ac9565b600181111561058c5761058c610ac9565b81526020019081526020016000206000856001600160a01b03166001600160a01b03168152602001908152602001600020819055507f61ea51d34234f5adb274140a6d68f165de731eff35dc027c15415b982e3db0c58484846040516105f493929190610b95565b60405180910390a150505050565b7f17a8e30262c1f919c33056d877a3c22b95c2f5e4dac44683c1c2323cd79fbdb061062c81610827565b60015460408051638125092f60e01b815290516000926001600160a01b031691638125092f9160048083019260209291908290030181865afa158015610676573d6000803e3d6000fd5b505050506040513d601f19601f8201168201806040525081019061069a9190610a96565b90507f41bbd6a7c88dbcb302793ed75b74fdef03ce2163a20b534eb96938717a25f424816040516106cb9190610bbd565b60405180910390a15050565b600060026000600160009054906101000a90046001600160a01b03166001600160a01b0316638125092f6040518163ffffffff1660e01b8152600401602060405180830381865afa158015610730573d6000803e3d6000fd5b505050506040513d601f19601f820116820180604052508101906107549190610a96565b600181111561076557610765610ac9565b600181111561077657610776610ac9565b81526020019081526020016000206000836001600160a01b03166001600160a01b03168152602001908152602001600020549050919050565b6000918252602082815260408084206001600160a01b0393909316845291905290205460ff1690565b6000828152602081905260409020600101546107f381610827565b6104fc83836108c6565b6003818154811061080d57600080fd5b6000918252602090912001546001600160a01b0316905081565b6108318133610931565b50565b600061084083836107af565b6108be576000838152602081815260408083206001600160a01b03861684529091529020805460ff191660011790556108763390565b6001600160a01b0316826001600160a01b0316847f2f8788117e7eff1d82e926ec794901d17c78024a50270940304540a733656f0d60405160405180910390a45060016102be565b5060006102be565b60006108d283836107af565b156108be576000838152602081815260408083206001600160a01b0386168085529252808320805460ff1916905551339286917ff6391f5c32d9c69d2a47ea670b442974b53935d1edc7fd64eb21e047a839171b9190a45060016102be565b61093b82826107af565b61096e5760405163e2517d3f60e01b81526001600160a01b03821660048201526024810183905260440160405180910390fd5b5050565b60006020828403121561098457600080fd5b81356001600160e01b03198116811461099c57600080fd5b9392505050565b80356001600160a01b03811681146109ba57600080fd5b919050565b6000602082840312156109d157600080fd5b61099c826109a3565b6000602082840312156109ec57600080fd5b5035919050565b60008060408385031215610a0657600080fd5b82359150610a16602084016109a3565b90509250929050565b6002811061083157600080fd5b600080600060608486031215610a4157600080fd5b8335610a4c81610a1f565b9250610a5a602085016109a3565b9150604084013590509250925092565b60008060408385031215610a7d57600080fd5b8235610a8881610a1f565b9150610a16602084016109a3565b600060208284031215610aa857600080fd5b815161099c81610a1f565b634e487b7160e01b600052603260045260246000fd5b634e487b7160e01b600052602160045260246000fd5b600060208284031215610af157600080fd5b5051919050565b634e487b7160e01b600052601160045260246000fd5b80820281158282048414176102be576102be610af8565b600082610b4257634e487b7160e01b600052601260045260246000fd5b500490565b808201808211156102be576102be610af8565b600060018201610b6c57610b6c610af8565b5060010190565b60028110610b9157634e487b7160e01b600052602160045260246000fd5b9052565b60608101610ba38286610b73565b6001600160a01b0393909316602082015260400152919050565b602081016102be8284610b7356fea2646970667358221220cd1462350d1b0dfc2ddbaa1b5de190a2fcf5da41d18728fb1da143adb0f6fb9b64736f6c63430008140033",
  "linkReferences": {},
  "deployedLinkReferences": {}
}