{
  "_format": "hh-sol-artifact-1",
  "contractName": "PancakeStrategy",
  "sourceName": "contracts/strategies/PancakeStrategy.sol",
  "abi": [
    {
      "inputs": [
        {
          "internalType": "address",
          "name": "_asset",
          "type": "address"
        }
      ],
      "stateMutability": "nonpayable",
      "type": "constructor"
    },
    {
      "inputs": [
        {
          "internalType": "address",
          "name": "owner",
          "type": "address"
        }
      ],
      "name": "OwnableInvalidOwner",
      "type": "error"
    },
    {
      "inputs": [
        {
          "internalType": "address",
          "name": "account",
          "type": "address"
        }
      ],
      "name": "OwnableUnauthorizedAccount",
      "type": "error"
    },
    {
      "anonymous": false,
      "inputs": [
        {
          "indexed": true,
          "internalType": "address",
          "name": "previousOwner",
          "type": "address"
        },
        {
          "indexed": true,
          "internalType": "address",
          "name": "newOwner",
          "type": "address"
        }
      ],
      "name": "OwnershipTransferred",
      "type": "event"
    },
    {
      "inputs": [],
      "name": "asset",
      "outputs": [
        {
          "internalType": "contract IERC20",
          "name": "",
          "type": "address"
        }
      ],
      "stateMutability": "view",
      "type": "function"
    },
    {
      "inputs": [],
      "name": "balanceOf",
      "outputs": [
        {
          "internalType": "uint256",
          "name": "",
          "type": "uint256"
        }
      ],
      "stateMutability": "view",
      "type": "function"
    },
    {
      "inputs": [],
      "name": "currentYieldRate",
      "outputs": [
        {
          "internalType": "uint256",
          "name": "",
          "type": "uint256"
        }
      ],
      "stateMutability": "view",
      "type": "function"
    },
    {
      "inputs": [
        {
          "internalType": "uint256",
          "name": "amount",
          "type": "uint256"
        }
      ],
      "name": "deposit",
      "outputs": [],
      "stateMutability": "nonpayable",
      "type": "function"
    },
    {
      "inputs": [],
      "name": "harvest",
      "outputs": [],
      "stateMutability": "nonpayable",
      "type": "function"
    },
    {
      "inputs": [],
      "name": "owner",
      "outputs": [
        {
          "internalType": "address",
          "name": "",
          "type": "address"
        }
      ],
      "stateMutability": "view",
      "type": "function"
    },
    {
      "inputs": [],
      "name": "renounceOwnership",
      "outputs": [],
      "stateMutability": "nonpayable",
      "type": "function"
    },
    {
      "inputs": [
        {
          "internalType": "uint256",
          "name": "_newRate",
          "type": "uint256"
        }
      ],
      "name": "setYieldRate",
      "outputs": [],
      "stateMutability": "nonpayable",
      "type": "function"
    },
    {
      "inputs": [],
      "name": "totalAssets",
      "outputs": [
        {
          "internalType": "uint256",
          "name": "",
          "type": "uint256"
        }
      ],
      "stateMutability": "view",
      "type": "function"
    },
    {
      "inputs": [
        {
          "internalType": "address",
          "name": "newOwner",
          "type": "address"
        }
      ],
      "name": "transferOwnership",
      "outputs": [],
      "stateMutability": "nonpayable",
      "type": "function"
    },
    {
      "inputs": [],
      "name": "underlying",
      "outputs": [
        {
          "internalType": "contract IERC20",
          "name": "",
          "type": "address"
        }
      ],
      "stateMutability": "view",
      "type": "function"
    },
    {
      "inputs": [
        {
          "internalType": "uint256",
          "name": "amount",
          "type": "uint256"
        }
      ],
      "name": "withdraw",
      "outputs": [
        {
          "internalType": "uint256",
          "name": "",
          "type": "uint256"
        }
      ],
      "stateMutability": "nonpayable",
      "type": "function"
    },
    {
      "inputs": [],
      "name": "yieldRate",
      "outputs": [
        {
          "internalType": "uint256",
          "name": "",
          "type": "uint256"
        }
      ],
      "stateMutability": "view",
      "type": "function"
    }
  ],
  "bytecode": "0x60a060405234801561001057600080fd5b5060405161072a38038061072a83398101604081905261002f916100c8565b80338061005657604051631e4fbdf760e01b81526000600482015260240160405180910390fd5b61005f81610078565b506001600160a01b0316608052506101f46002556100f8565b600080546001600160a01b038381166001600160a01b0319831681178455604051919092169283917f8be0079c531659141344cd1fd0a4f28419497f9722a3daafe3b4186f6b6457e09190a35050565b6000602082840312156100da57600080fd5b81516001600160a01b03811681146100f157600080fd5b9392505050565b6080516106026101286000396000818161011a015281816101670152818161027101526103a301526106026000f3fe608060405234801561001057600080fd5b50600436106100cf5760003560e01c80636f307dc31161008c5780638614a391116100665780638614a391146101995780638da5cb5b146101a2578063b6b55f25146101b3578063f2fde38b146101c657600080fd5b80636f307dc314610162578063715018a614610189578063722713f71461019157600080fd5b806301e1d114146100d45780631411dab0146100f05780632e1a7d4d1461010557806338d52e0f146101185780634641257d146101525780636999ac931461015a575b600080fd5b6100dd60015481565b6040519081526020015b60405180910390f35b6101036100fe3660046104e6565b6101d9565b005b6100dd6101133660046104e6565b6101e6565b7f00000000000000000000000000000000000000000000000000000000000000005b6040516001600160a01b0390911681526020016100e7565b6101036102ed565b6002546100dd565b61013a7f000000000000000000000000000000000000000000000000000000000000000081565b610103610328565b6001546100dd565b6100dd60025481565b6000546001600160a01b031661013a565b6101036101c13660046104e6565b61033c565b6101036101d43660046104ff565b61042b565b6101e1610469565b600255565b60006101f0610469565b60015482111561023e5760405162461bcd60e51b8152602060048201526014602482015273496e73756666696369656e742062616c616e636560601b60448201526064015b60405180910390fd5b81600160008282546102509190610545565b909155505060405163a9059cbb60e01b8152336004820152602481018390527f00000000000000000000000000000000000000000000000000000000000000006001600160a01b03169063a9059cbb906044016020604051808303816000875af11580156102c2573d6000803e3d6000fd5b505050506040513d601f19601f820116820180604052508101906102e6919061055e565b5090919050565b60006127106002546001546103029190610580565b61030c9190610597565b9050806001600082825461032091906105b9565b909155505050565b610330610469565b61033a6000610496565b565b600081116103815760405162461bcd60e51b81526020600482015260126024820152710416d6f756e74206d757374206265203e20360741b6044820152606401610235565b6040516323b872dd60e01b8152336004820152306024820152604481018290527f00000000000000000000000000000000000000000000000000000000000000006001600160a01b0316906323b872dd906064016020604051808303816000875af11580156103f4573d6000803e3d6000fd5b505050506040513d601f19601f82011682018060405250810190610418919061055e565b50806001600082825461032091906105b9565b610433610469565b6001600160a01b03811661045d57604051631e4fbdf760e01b815260006004820152602401610235565b61046681610496565b50565b6000546001600160a01b0316331461033a5760405163118cdaa760e01b8152336004820152602401610235565b600080546001600160a01b038381166001600160a01b0319831681178455604051919092169283917f8be0079c531659141344cd1fd0a4f28419497f9722a3daafe3b4186f6b6457e09190a35050565b6000602082840312156104f857600080fd5b5035919050565b60006020828403121561051157600080fd5b81356001600160a01b038116811461052857600080fd5b9392505050565b634e487b7160e01b600052601160045260246000fd5b818103818111156105585761055861052f565b92915050565b60006020828403121561057057600080fd5b8151801515811461052857600080fd5b80820281158282048414176105585761055861052f565b6000826105b457634e487b7160e01b600052601260045260246000fd5b500490565b808201808211156105585761055861052f56fea2646970667358221220dc2cb4c8a199b780289b92dc3d47ff3f6bf7fdbea25a93a75b7b9fc6903776d264736f6c63430008140033",
  "linkReferences": {},
  "deployedLinkReferences": {}
}