{
  "_format": "hh-sol-artifact-1",
  "contractName": "AsterDEXStrategy",
  "sourceName": "contracts/strategies/AsterDEXStrategy.sol",
  "abi": [
    {
      "inputs": [
        {
          "internalType": "address",
          "name": "_asset",
          "type": "address"
        }
      ],
      "stateMutability": "nonpayable",
      "type": "constructor"
    },
    {
      "inputs": [],
      "name": "AccessControlBadConfirmation",
      "type": "error"
    },
    {
      "inputs": [
        {
          "internalType": "address",
          "name": "account",
          "type": "address"
        },
        {
          "internalType": "bytes32",
          "name": "neededRole",
          "type": "bytes32"
        }
      ],
      "name": "AccessControlUnauthorizedAccount",
      "type": "error"
    },
    {
      "anonymous": false,
      "inputs": [
        {
          "indexed": true,
          "internalType": "bytes32",
          "name": "role",
          "type": "bytes32"
        },
        {
          "indexed": true,
          "internalType": "bytes32",
          "name": "previousAdminRole",
          "type": "bytes32"
        },
        {
          "indexed": true,
          "internalType": "bytes32",
          "name": "newAdminRole",
          "type": "bytes32"
        }
      ],
      "name": "RoleAdminChanged",
      "type": "event"
    },
    {
      "anonymous": false,
      "inputs": [
        {
          "indexed": true,
          "internalType": "bytes32",
          "name": "role",
          "type": "bytes32"
        },
        {
          "indexed": true,
          "internalType": "address",
          "name": "account",
          "type": "address"
        },
        {
          "indexed": true,
          "internalType": "address",
          "name": "sender",
          "type": "address"
        }
      ],
      "name": "RoleGranted",
      "type": "event"
    },
    {
      "anonymous": false,
      "inputs": [
        {
          "indexed": true,
          "internalType": "bytes32",
          "name": "role",
          "type": "bytes32"
        },
        {
          "indexed": true,
          "internalType": "address",
          "name": "account",
          "type": "address"
        },
        {
          "indexed": true,
          "internalType": "address",
          "name": "sender",
          "type": "address"
        }
      ],
      "name": "RoleRevoked",
      "type": "event"
    },
    {
      "inputs": [],
      "name": "ASTER_VAULT",
      "outputs": [
        {
          "internalType": "address",
          "name": "",
          "type": "address"
        }
      ],
      "stateMutability": "view",
      "type": "function"
    },
    {
      "inputs": [],
      "name": "DEFAULT_ADMIN_ROLE",
      "outputs": [
        {
          "internalType": "bytes32",
          "name": "",
          "type": "bytes32"
        }
      ],
      "stateMutability": "view",
      "type": "function"
    },
    {
      "inputs": [],
      "name": "asset",
      "outputs": [
        {
          "internalType": "contract IERC20",
          "name": "",
          "type": "address"
        }
      ],
      "stateMutability": "view",
      "type": "function"
    },
    {
      "inputs": [],
      "name": "assetToken",
      "outputs": [
        {
          "internalType": "contract IERC20",
          "name": "",
          "type": "address"
        }
      ],
      "stateMutability": "view",
      "type": "function"
    },
    {
      "inputs": [],
      "name": "asterVault",
      "outputs": [
        {
          "internalType": "contract IAsterDEX",
          "name": "",
          "type": "address"
        }
      ],
      "stateMutability": "view",
      "type": "function"
    },
    {
      "inputs": [],
      "name": "balanceOf",
      "outputs": [
        {
          "internalType": "uint256",
          "name": "",
          "type": "uint256"
        }
      ],
      "stateMutability": "view",
      "type": "function"
    },
    {
      "inputs": [
        {
          "internalType": "uint256",
          "name": "amount",
          "type": "uint256"
        }
      ],
      "name": "deposit",
      "outputs": [],
      "stateMutability": "nonpayable",
      "type": "function"
    },
    {
      "inputs": [
        {
          "internalType": "bytes32",
          "name": "role",
          "type": "bytes32"
        }
      ],
      "name": "getRoleAdmin",
      "outputs": [
        {
          "internalType": "bytes32",
          "name": "",
          "type": "bytes32"
        }
      ],
      "stateMutability": "view",
      "type": "function"
    },
    {
      "inputs": [
        {
          "internalType": "bytes32",
          "name": "role",
          "type": "bytes32"
        },
        {
          "internalType": "address",
          "name": "account",
          "type": "address"
        }
      ],
      "name": "grantRole",
      "outputs": [],
      "stateMutability": "nonpayable",
      "type": "function"
    },
    {
      "inputs": [],
      "name": "harvest",
      "outputs": [],
      "stateMutability": "nonpayable",
      "type": "function"
    },
    {
      "inputs": [
        {
          "internalType": "bytes32",
          "name": "role",
          "type": "bytes32"
        },
        {
          "internalType": "address",
          "name": "account",
          "type": "address"
        }
      ],
      "name": "hasRole",
      "outputs": [
        {
          "internalType": "bool",
          "name": "",
          "type": "bool"
        }
      ],
      "stateMutability": "view",
      "type": "function"
    },
    {
      "inputs": [
        {
          "internalType": "bytes32",
          "name": "role",
          "type": "bytes32"
        },
        {
          "internalType": "address",
          "name": "callerConfirmation",
          "type": "address"
        }
      ],
      "name": "renounceRole",
      "outputs": [],
      "stateMutability": "nonpayable",
      "type": "function"
    },
    {
      "inputs": [
        {
          "internalType": "bytes32",
          "name": "role",
          "type": "bytes32"
        },
        {
          "internalType": "address",
          "name": "account",
          "type": "address"
        }
      ],
      "name": "revokeRole",
      "outputs": [],
      "stateMutability": "nonpayable",
      "type": "function"
    },
    {
      "inputs": [
        {
          "internalType": "bytes4",
          "name": "interfaceId",
          "type": "bytes4"
        }
      ],
      "name": "supportsInterface",
      "outputs": [
        {
          "internalType": "bool",
          "name": "",
          "type": "bool"
        }
      ],
      "stateMutability": "view",
      "type": "function"
    },
    {
      "inputs": [
        {
          "internalType": "uint256",
          "name": "amount",
          "type": "uint256"
        }
      ],
      "name": "withdraw",
      "outputs": [
        {
          "internalType": "uint256",
          "name": "",
          "type": "uint256"
        }
      ],
      "stateMutability": "nonpayable",
      "type": "function"
    },
    {
      "inputs": [],
      "name": "yieldRate",
      "outputs": [
        {
          "internalType": "uint256",
          "name": "",
          "type": "uint256"
        }
      ],
      "stateMutability": "view",
      "type": "function"
    }
  ],
  "bytecode": "0x60c060405234801561001057600080fd5b50604051610e70380380610e7083398101604081905261002f91610112565b6001600160a01b038116608052731b6f2d3844c6ae7d56ceb3c3643b9060ba28feb060a05261005f600033610066565b5050610142565b6000828152602081815260408083206001600160a01b038516845290915281205460ff16610108576000838152602081815260408083206001600160a01b03861684529091529020805460ff191660011790556100c03390565b6001600160a01b0316826001600160a01b0316847f2f8788117e7eff1d82e926ec794901d17c78024a50270940304540a733656f0d60405160405180910390a450600161010c565b5060005b92915050565b60006020828403121561012457600080fd5b81516001600160a01b038116811461013b57600080fd5b9392505050565b60805160a051610cae6101c260003960008181610132015281816103bc0152818161091601526109cf015260008181610171015281816102010152818161032b01528181610431015281816104d401528181610567015281816105f601528181610688015281816107810152818161088901526109450152610cae6000f3fe608060405234801561001057600080fd5b50600436106101005760003560e01c80634641257d116100975780639ad200a5116100665780639ad200a514610248578063a217fddf14610263578063b6b55f251461026b578063d547741f1461027e57600080fd5b80634641257d146101ea5780636999ac9314610225578063722713f71461022d57806391d148541461023557600080fd5b80632e1a7d4d116100d35780632e1a7d4d146101c45780632f2ff15d146101d757806336568abe146101ec57806338d52e0f146101ff57600080fd5b806301ffc9a7146101055780630f1b1bcc1461012d5780631083f7611461016c578063248a9ca314610193575b600080fd5b610118610113366004610b96565b610291565b60405190151581526020015b60405180910390f35b6101547f000000000000000000000000000000000000000000000000000000000000000081565b6040516001600160a01b039091168152602001610124565b6101547f000000000000000000000000000000000000000000000000000000000000000081565b6101b66101a1366004610bc7565b60009081526020819052604090206001015490565b604051908152602001610124565b6101b66101d2366004610bc7565b6102c8565b6101ea6101e5366004610be0565b610706565b005b6101ea6101fa366004610be0565b610731565b7f0000000000000000000000000000000000000000000000000000000000000000610154565b6103526101b6565b6101b6610769565b610118610243366004610be0565b6107f9565b610154731b6f2d3844c6ae7d56ceb3c3643b9060ba28feb081565b6101b6600081565b6101ea610279366004610bc7565b610822565b6101ea61028c366004610be0565b610a31565b60006001600160e01b03198216637965db0b60e01b14806102c257506301ffc9a760e01b6001600160e01b03198316145b92915050565b60008082116103135760405162461bcd60e51b81526020600482015260126024820152710416d6f756e74206d757374206265203e20360741b60448201526064015b60405180910390fd5b6040516370a0823160e01b81523060048201526000907f00000000000000000000000000000000000000000000000000000000000000006001600160a01b0316906370a0823190602401602060405180830381865afa15801561037a573d6000803e3d6000fd5b505050506040513d601f19601f8201168201806040525081019061039e9190610c1c565b604051627b8a6760e11b8152600481018590523060248201529091507f00000000000000000000000000000000000000000000000000000000000000006001600160a01b03169062f714ce90604401600060405180830381600087803b15801561040757600080fd5b505af1925050508015610418575060015b506040516370a0823160e01b81523060048201526000907f00000000000000000000000000000000000000000000000000000000000000006001600160a01b0316906370a0823190602401602060405180830381865afa158015610480573d6000803e3d6000fd5b505050506040513d601f19601f820116820180604052508101906104a49190610c1c565b905060006104b28383610c35565b90508015801561054a57506040516370a0823160e01b815230600482015285907f00000000000000000000000000000000000000000000000000000000000000006001600160a01b0316906370a0823190602401602060405180830381865afa158015610523573d6000803e3d6000fd5b505050506040513d601f19601f820116820180604052508101906105479190610c1c565b10155b156105525750835b6040516370a0823160e01b81523060048201527f00000000000000000000000000000000000000000000000000000000000000006001600160a01b0316906370a0823190602401602060405180830381865afa1580156105b6573d6000803e3d6000fd5b505050506040513d601f19601f820116820180604052508101906105da9190610c1c565b81111561066c576040516370a0823160e01b81523060048201527f00000000000000000000000000000000000000000000000000000000000000006001600160a01b0316906370a0823190602401602060405180830381865afa158015610645573d6000803e3d6000fd5b505050506040513d601f19601f820116820180604052508101906106699190610c1c565b90505b60405163a9059cbb60e01b8152336004820152602481018290527f00000000000000000000000000000000000000000000000000000000000000006001600160a01b03169063a9059cbb906044016020604051808303816000875af11580156106d9573d6000803e3d6000fd5b505050506040513d601f19601f820116820180604052508101906106fd9190610c56565b50949350505050565b60008281526020819052604090206001015461072181610a56565b61072b8383610a60565b50505050565b6001600160a01b038116331461075a5760405163334bd91960e11b815260040160405180910390fd5b6107648282610af2565b505050565b6040516370a0823160e01b81523060048201526000907f00000000000000000000000000000000000000000000000000000000000000006001600160a01b0316906370a0823190602401602060405180830381865afa1580156107d0573d6000803e3d6000fd5b505050506040513d601f19601f820116820180604052508101906107f49190610c1c565b905090565b6000918252602082815260408084206001600160a01b0393909316845291905290205460ff1690565b600081116108675760405162461bcd60e51b81526020600482015260126024820152710416d6f756e74206d757374206265203e20360741b604482015260640161030a565b6040516323b872dd60e01b8152336004820152306024820152604481018290527f00000000000000000000000000000000000000000000000000000000000000006001600160a01b0316906323b872dd906064016020604051808303816000875af11580156108da573d6000803e3d6000fd5b505050506040513d601f19601f820116820180604052508101906108fe9190610c56565b5060405163095ea7b360e01b81526001600160a01b037f000000000000000000000000000000000000000000000000000000000000000081166004830152602482018390527f0000000000000000000000000000000000000000000000000000000000000000169063095ea7b3906044016020604051808303816000875af115801561098e573d6000803e3d6000fd5b505050506040513d601f19601f820116820180604052508101906109b29190610c56565b50604051636e553f6560e01b8152600481018290523060248201527f00000000000000000000000000000000000000000000000000000000000000006001600160a01b031690636e553f6590604401600060405180830381600087803b158015610a1b57600080fd5b505af1925050508015610a2c575060015b505b50565b600082815260208190526040902060010154610a4c81610a56565b61072b8383610af2565b610a2e8133610b5d565b6000610a6c83836107f9565b610aea576000838152602081815260408083206001600160a01b03861684529091529020805460ff19166001179055610aa23390565b6001600160a01b0316826001600160a01b0316847f2f8788117e7eff1d82e926ec794901d17c78024a50270940304540a733656f0d60405160405180910390a45060016102c2565b5060006102c2565b6000610afe83836107f9565b15610aea576000838152602081815260408083206001600160a01b0386168085529252808320805460ff1916905551339286917ff6391f5c32d9c69d2a47ea670b442974b53935d1edc7fd64eb21e047a839171b9190a45060016102c2565b610b6782826107f9565b610a2c5760405163e2517d3f60e01b81526001600160a01b03821660048201526024810183905260440161030a565b600060208284031215610ba857600080fd5b81356001600160e01b031981168114610bc057600080fd5b9392505050565b600060208284031215610bd957600080fd5b5035919050565b60008060408385031215610bf357600080fd5b8235915060208301356001600160a01b0381168114610c1157600080fd5b809150509250929050565b600060208284031215610c2e57600080fd5b5051919050565b818103818111156102c257634e487b7160e01b600052601160045260246000fd5b600060208284031215610c6857600080fd5b81518015158114610bc057600080fdfea2646970667358221220bf9eccf45453be9620e69012539149da695855dbdcdb32bca5d128a052d2bf5464736f6c63430008140033",
  "linkReferences": {},
  "deployedLinkReferences": {}
}