{
  "_format": "hh-sol-artifact-1",
  "contractName": "CitadelVault",
  "sourceName": "contracts/CitadelVault.sol",
  "abi": [
    {
      "inputs": [
        {
          "internalType": "contract IERC20",
          "name": "_asset",
          "type": "address"
        },
        {
          "internalType": "address",
          "name": "_oracle",
          "type": "address"
        },
        {
          "internalType": "string",
          "name": "_name",
          "type": "string"
        },
        {
          "internalType": "string",
          "name": "_symbol",
          "type": "string"
        }
      ],
      "stateMutability": "nonpayable",
      "type": "constructor"
    },
    {
      "inputs": [],
      "name": "AccessControlBadConfirmation",
      "type": "error"
    },
    {
      "inputs": [
        {
          "internalType": "address",
          "name": "account",
          "type": "address"
        },
        {
          "internalType": "bytes32",
          "name": "neededRole",
          "type": "bytes32"
        }
      ],
      "name": "AccessControlUnauthorizedAccount",
      "type": "error"
    },
    {
      "inputs": [
        {
          "internalType": "address",
          "name": "spender",
          "type": "address"
        },
        {
          "internalType": "uint256",
          "name": "allowance",
          "type": "uint256"
        },
        {
          "internalType": "uint256",
          "name": "needed",
          "type": "uint256"
        }
      ],
      "name": "ERC20InsufficientAllowance",
      "type": "error"
    },
    {
      "inputs": [
        {
          "internalType": "address",
          "name": "sender",
          "type": "address"
        },
        {
          "internalType": "uint256",
          "name": "balance",
          "type": "uint256"
        },
        {
          "internalType": "uint256",
          "name": "needed",
          "type": "uint256"
        }
      ],
      "name": "ERC20InsufficientBalance",
      "type": "error"
    },
    {
      "inputs": [
        {
          "internalType": "address",
          "name": "approver",
          "type": "address"
        }
      ],
      "name": "ERC20InvalidApprover",
      "type": "error"
    },
    {
      "inputs": [
        {
          "internalType": "address",
          "name": "receiver",
          "type": "address"
        }
      ],
      "name": "ERC20InvalidReceiver",
      "type": "error"
    },
    {
      "inputs": [
        {
          "internalType": "address",
          "name": "sender",
          "type": "address"
        }
      ],
      "name": "ERC20InvalidSender",
      "type": "error"
    },
    {
      "inputs": [
        {
          "internalType": "address",
          "name": "spender",
          "type": "address"
        }
      ],
      "name": "ERC20InvalidSpender",
      "type": "error"
    },
    {
      "inputs": [
        {
          "internalType": "address",
          "name": "receiver",
          "type": "address"
        },
        {
          "internalType": "uint256",
          "name": "assets",
          "type": "uint256"
        },
        {
          "internalType": "uint256",
          "name": "max",
          "type": "uint256"
        }
      ],
      "name": "ERC4626ExceededMaxDeposit",
      "type": "error"
    },
    {
      "inputs": [
        {
          "internalType": "address",
          "name": "receiver",
          "type": "address"
        },
        {
          "internalType": "uint256",
          "name": "shares",
          "type": "uint256"
        },
        {
          "internalType": "uint256",
          "name": "max",
          "type": "uint256"
        }
      ],
      "name": "ERC4626ExceededMaxMint",
      "type": "error"
    },
    {
      "inputs": [
        {
          "internalType": "address",
          "name": "owner",
          "type": "address"
        },
        {
          "internalType": "uint256",
          "name": "shares",
          "type": "uint256"
        },
        {
          "internalType": "uint256",
          "name": "max",
          "type": "uint256"
        }
      ],
      "name": "ERC4626ExceededMaxRedeem",
      "type": "error"
    },
    {
      "inputs": [
        {
          "internalType": "address",
          "name": "owner",
          "type": "address"
        },
        {
          "internalType": "uint256",
          "name": "assets",
          "type": "uint256"
        },
        {
          "internalType": "uint256",
          "name": "max",
          "type": "uint256"
        }
      ],
      "name": "ERC4626ExceededMaxWithdraw",
      "type": "error"
    },
    {
      "inputs": [],
      "name": "EnforcedPause",
      "type": "error"
    },
    {
      "inputs": [],
      "name": "ExpectedPause",
      "type": "error"
    },
    {
      "inputs": [],
      "name": "ReentrancyGuardReentrantCall",
      "type": "error"
    },
    {
      "inputs": [
        {
          "internalType": "address",
          "name": "token",
          "type": "address"
        }
      ],
      "name": "SafeERC20FailedOperation",
      "type": "error"
    },
    {
      "anonymous": false,
      "inputs": [
        {
          "indexed": true,
          "internalType": "address",
          "name": "owner",
          "type": "address"
        },
        {
          "indexed": true,
          "internalType": "address",
          "name": "spender",
          "type": "address"
        },
        {
          "indexed": false,
          "internalType": "uint256",
          "name": "value",
          "type": "uint256"
        }
      ],
      "name": "Approval",
      "type": "event"
    },
    {
      "anonymous": false,
      "inputs": [
        {
          "indexed": true,
          "internalType": "address",
          "name": "sender",
          "type": "address"
        },
        {
          "indexed": true,
          "internalType": "address",
          "name": "owner",
          "type": "address"
        },
        {
          "indexed": false,
          "internalType": "uint256",
          "name": "assets",
          "type": "uint256"
        },
        {
          "indexed": false,
          "internalType": "uint256",
          "name": "shares",
          "type": "uint256"
        }
      ],
      "name": "Deposit",
      "type": "event"
    },
    {
      "anonymous": false,
      "inputs": [
        {
          "indexed": false,
          "internalType": "enum CitadelVault.Mode",
          "name": "newMode",
          "type": "uint8"
        },
        {
          "indexed": false,
          "internalType": "uint256",
          "name": "triggerVolatility",
          "type": "uint256"
        }
      ],
      "name": "ModeChanged",
      "type": "event"
    },
    {
      "anonymous": false,
      "inputs": [
        {
          "indexed": true,
          "internalType": "address",
          "name": "newOracle",
          "type": "address"
        }
      ],
      "name": "OracleUpdated",
      "type": "event"
    },
    {
      "anonymous": false,
      "inputs": [
        {
          "indexed": false,
          "internalType": "address",
          "name": "account",
          "type": "address"
        }
      ],
      "name": "Paused",
      "type": "event"
    },
    {
      "anonymous": false,
      "inputs": [
        {
          "indexed": true,
          "internalType": "bytes32",
          "name": "role",
          "type": "bytes32"
        },
        {
          "indexed": true,
          "internalType": "bytes32",
          "name": "previousAdminRole",
          "type": "bytes32"
        },
        {
          "indexed": true,
          "internalType": "bytes32",
          "name": "newAdminRole",
          "type": "bytes32"
        }
      ],
      "name": "RoleAdminChanged",
      "type": "event"
    },
    {
      "anonymous": false,
      "inputs": [
        {
          "indexed": true,
          "internalType": "bytes32",
          "name": "role",
          "type": "bytes32"
        },
        {
          "indexed": true,
          "internalType": "address",
          "name": "account",
          "type": "address"
        },
        {
          "indexed": true,
          "internalType": "address",
          "name": "sender",
          "type": "address"
        }
      ],
      "name": "RoleGranted",
      "type": "event"
    },
    {
      "anonymous": false,
      "inputs": [
        {
          "indexed": true,
          "internalType": "bytes32",
          "name": "role",
          "type": "bytes32"
        },
        {
          "indexed": true,
          "internalType": "address",
          "name": "account",
          "type": "address"
        },
        {
          "indexed": true,
          "internalType": "address",
          "name": "sender",
          "type": "address"
        }
      ],
      "name": "RoleRevoked",
      "type": "event"
    },
    {
      "anonymous": false,
      "inputs": [
        {
          "indexed": true,
          "internalType": "address",
          "name": "from",
          "type": "address"
        },
        {
          "indexed": true,
          "internalType": "address",
          "name": "to",
          "type": "address"
        },
        {
          "indexed": false,
          "internalType": "uint256",
          "name": "value",
          "type": "uint256"
        }
      ],
      "name": "Transfer",
      "type": "event"
    },
    {
      "anonymous": false,
      "inputs": [
        {
          "indexed": false,
          "internalType": "address",
          "name": "account",
          "type": "address"
        }
      ],
      "name": "Unpaused",
      "type": "event"
    },
    {
      "anonymous": false,
      "inputs": [
        {
          "indexed": true,
          "internalType": "address",
          "name": "sender",
          "type": "address"
        },
        {
          "indexed": true,
          "internalType": "address",
          "name": "receiver",
          "type": "address"
        },
        {
          "indexed": true,
          "internalType": "address",
          "name": "owner",
          "type": "address"
        },
        {
          "indexed": false,
          "internalType": "uint256",
          "name": "assets",
          "type": "uint256"
        },
        {
          "indexed": false,
          "internalType": "uint256",
          "name": "shares",
          "type": "uint256"
        }
      ],
      "name": "Withdraw",
      "type": "event"
    },
    {
      "inputs": [],
      "name": "DEFAULT_ADMIN_ROLE",
      "outputs": [
        {
          "internalType": "bytes32",
          "name": "",
          "type": "bytes32"
        }
      ],
      "stateMutability": "view",
      "type": "function"
    },
    {
      "inputs": [],
      "name": "KEEPER_ROLE",
      "outputs": [
        {
          "internalType": "bytes32",
          "name": "",
          "type": "bytes32"
        }
      ],
      "stateMutability": "view",
      "type": "function"
    },
    {
      "inputs": [],
      "name": "VOLATILITY_THRESHOLD_HIGH",
      "outputs": [
        {
          "internalType": "uint256",
          "name": "",
          "type": "uint256"
        }
      ],
      "stateMutability": "view",
      "type": "function"
    },
    {
      "inputs": [],
      "name": "VOLATILITY_THRESHOLD_LOW",
      "outputs": [
        {
          "internalType": "uint256",
          "name": "",
          "type": "uint256"
        }
      ],
      "stateMutability": "view",
      "type": "function"
    },
    {
      "inputs": [],
      "name": "adapt",
      "outputs": [],
      "stateMutability": "nonpayable",
      "type": "function"
    },
    {
      "inputs": [
        {
          "internalType": "address",
          "name": "owner",
          "type": "address"
        },
        {
          "internalType": "address",
          "name": "spender",
          "type": "address"
        }
      ],
      "name": "allowance",
      "outputs": [
        {
          "internalType": "uint256",
          "name": "",
          "type": "uint256"
        }
      ],
      "stateMutability": "view",
      "type": "function"
    },
    {
      "inputs": [
        {
          "internalType": "address",
          "name": "spender",
          "type": "address"
        },
        {
          "internalType": "uint256",
          "name": "value",
          "type": "uint256"
        }
      ],
      "name": "approve",
      "outputs": [
        {
          "internalType": "bool",
          "name": "",
          "type": "bool"
        }
      ],
      "stateMutability": "nonpayable",
      "type": "function"
    },
    {
      "inputs": [],
      "name": "asset",
      "outputs": [
        {
          "internalType": "address",
          "name": "",
          "type": "address"
        }
      ],
      "stateMutability": "view",
      "type": "function"
    },
    {
      "inputs": [
        {
          "internalType": "address",
          "name": "account",
          "type": "address"
        }
      ],
      "name": "balanceOf",
      "outputs": [
        {
          "internalType": "uint256",
          "name": "",
          "type": "uint256"
        }
      ],
      "stateMutability": "view",
      "type": "function"
    },
    {
      "inputs": [
        {
          "internalType": "uint256",
          "name": "shares",
          "type": "uint256"
        }
      ],
      "name": "convertToAssets",
      "outputs": [
        {
          "internalType": "uint256",
          "name": "",
          "type": "uint256"
        }
      ],
      "stateMutability": "view",
      "type": "function"
    },
    {
      "inputs": [
        {
          "internalType": "uint256",
          "name": "assets",
          "type": "uint256"
        }
      ],
      "name": "convertToShares",
      "outputs": [
        {
          "internalType": "uint256",
          "name": "",
          "type": "uint256"
        }
      ],
      "stateMutability": "view",
      "type": "function"
    },
    {
      "inputs": [],
      "name": "currentMode",
      "outputs": [
        {
          "internalType": "enum CitadelVault.Mode",
          "name": "",
          "type": "uint8"
        }
      ],
      "stateMutability": "view",
      "type": "function"
    },
    {
      "inputs": [],
      "name": "decimals",
      "outputs": [
        {
          "internalType": "uint8",
          "name": "",
          "type": "uint8"
        }
      ],
      "stateMutability": "view",
      "type": "function"
    },
    {
      "inputs": [
        {
          "internalType": "uint256",
          "name": "assets",
          "type": "uint256"
        },
        {
          "internalType": "address",
          "name": "receiver",
          "type": "address"
        }
      ],
      "name": "deposit",
      "outputs": [
        {
          "internalType": "uint256",
          "name": "",
          "type": "uint256"
        }
      ],
      "stateMutability": "nonpayable",
      "type": "function"
    },
    {
      "inputs": [
        {
          "internalType": "bytes32",
          "name": "role",
          "type": "bytes32"
        }
      ],
      "name": "getRoleAdmin",
      "outputs": [
        {
          "internalType": "bytes32",
          "name": "",
          "type": "bytes32"
        }
      ],
      "stateMutability": "view",
      "type": "function"
    },
    {
      "inputs": [
        {
          "internalType": "bytes32",
          "name": "role",
          "type": "bytes32"
        },
        {
          "internalType": "address",
          "name": "account",
          "type": "address"
        }
      ],
      "name": "grantRole",
      "outputs": [],
      "stateMutability": "nonpayable",
      "type": "function"
    },
    {
      "inputs": [
        {
          "internalType": "bytes32",
          "name": "role",
          "type": "bytes32"
        },
        {
          "internalType": "address",
          "name": "account",
          "type": "address"
        }
      ],
      "name": "hasRole",
      "outputs": [
        {
          "internalType": "bool",
          "name": "",
          "type": "bool"
        }
      ],
      "stateMutability": "view",
      "type": "function"
    },
    {
      "inputs": [
        {
          "internalType": "address",
          "name": "",
          "type": "address"
        }
      ],
      "name": "maxDeposit",
      "outputs": [
        {
          "internalType": "uint256",
          "name": "",
          "type": "uint256"
        }
      ],
      "stateMutability": "view",
      "type": "function"
    },
    {
      "inputs": [
        {
          "internalType": "address",
          "name": "",
          "type": "address"
        }
      ],
      "name": "maxMint",
      "outputs": [
        {
          "internalType": "uint256",
          "name": "",
          "type": "uint256"
        }
      ],
      "stateMutability": "view",
      "type": "function"
    },
    {
      "inputs": [
        {
          "internalType": "address",
          "name": "owner",
          "type": "address"
        }
      ],
      "name": "maxRedeem",
      "outputs": [
        {
          "internalType": "uint256",
          "name": "",
          "type": "uint256"
        }
      ],
      "stateMutability": "view",
      "type": "function"
    },
    {
      "inputs": [
        {
          "internalType": "address",
          "name": "owner",
          "type": "address"
        }
      ],
      "name": "maxWithdraw",
      "outputs": [
        {
          "internalType": "uint256",
          "name": "",
          "type": "uint256"
        }
      ],
      "stateMutability": "view",
      "type": "function"
    },
    {
      "inputs": [
        {
          "internalType": "uint256",
          "name": "shares",
          "type": "uint256"
        },
        {
          "internalType": "address",
          "name": "receiver",
          "type": "address"
        }
      ],
      "name": "mint",
      "outputs": [
        {
          "internalType": "uint256",
          "name": "",
          "type": "uint256"
        }
      ],
      "stateMutability": "nonpayable",
      "type": "function"
    },
    {
      "inputs": [],
      "name": "name",
      "outputs": [
        {
          "internalType": "string",
          "name": "",
          "type": "string"
        }
      ],
      "stateMutability": "view",
      "type": "function"
    },
    {
      "inputs": [],
      "name": "oracle",
      "outputs": [
        {
          "internalType": "contract VolatilityOracle",
          "name": "",
          "type": "address"
        }
      ],
      "stateMutability": "view",
      "type": "function"
    },
    {
      "inputs": [],
      "name": "pause",
      "outputs": [],
      "stateMutability": "nonpayable",
      "type": "function"
    },
    {
      "inputs": [],
      "name": "paused",
      "outputs": [
        {
          "internalType": "bool",
          "name": "",
          "type": "bool"
        }
      ],
      "stateMutability": "view",
      "type": "function"
    },
    {
      "inputs": [
        {
          "internalType": "uint256",
          "name": "assets",
          "type": "uint256"
        }
      ],
      "name": "previewDeposit",
      "outputs": [
        {
          "internalType": "uint256",
          "name": "",
          "type": "uint256"
        }
      ],
      "stateMutability": "view",
      "type": "function"
    },
    {
      "inputs": [
        {
          "internalType": "uint256",
          "name": "shares",
          "type": "uint256"
        }
      ],
      "name": "previewMint",
      "outputs": [
        {
          "internalType": "uint256",
          "name": "",
          "type": "uint256"
        }
      ],
      "stateMutability": "view",
      "type": "function"
    },
    {
      "inputs": [
        {
          "internalType": "uint256",
          "name": "shares",
          "type": "uint256"
        }
      ],
      "name": "previewRedeem",
      "outputs": [
        {
          "internalType": "uint256",
          "name": "",
          "type": "uint256"
        }
      ],
      "stateMutability": "view",
      "type": "function"
    },
    {
      "inputs": [
        {
          "internalType": "uint256",
          "name": "assets",
          "type": "uint256"
        }
      ],
      "name": "previewWithdraw",
      "outputs": [
        {
          "internalType": "uint256",
          "name": "",
          "type": "uint256"
        }
      ],
      "stateMutability": "view",
      "type": "function"
    },
    {
      "inputs": [
        {
          "internalType": "uint256",
          "name": "shares",
          "type": "uint256"
        },
        {
          "internalType": "address",
          "name": "receiver",
          "type": "address"
        },
        {
          "internalType": "address",
          "name": "owner",
          "type": "address"
        }
      ],
      "name": "redeem",
      "outputs": [
        {
          "internalType": "uint256",
          "name": "",
          "type": "uint256"
        }
      ],
      "stateMutability": "nonpayable",
      "type": "function"
    },
    {
      "inputs": [
        {
          "internalType": "bytes32",
          "name": "role",
          "type": "bytes32"
        },
        {
          "internalType": "address",
          "name": "callerConfirmation",
          "type": "address"
        }
      ],
      "name": "renounceRole",
      "outputs": [],
      "stateMutability": "nonpayable",
      "type": "function"
    },
    {
      "inputs": [
        {
          "internalType": "bytes32",
          "name": "role",
          "type": "bytes32"
        },
        {
          "internalType": "address",
          "name": "account",
          "type": "address"
        }
      ],
      "name": "revokeRole",
      "outputs": [],
      "stateMutability": "nonpayable",
      "type": "function"
    },
    {
      "inputs": [
        {
          "internalType": "address",
          "name": "_oracle",
          "type": "address"
        }
      ],
      "name": "setOracle",
      "outputs": [],
      "stateMutability": "nonpayable",
      "type": "function"
    },
    {
      "inputs": [
        {
          "internalType": "bytes4",
          "name": "interfaceId",
          "type": "bytes4"
        }
      ],
      "name": "supportsInterface",
      "outputs": [
        {
          "internalType": "bool",
          "name": "",
          "type": "bool"
        }
      ],
      "stateMutability": "view",
      "type": "function"
    },
    {
      "inputs": [],
      "name": "symbol",
      "outputs": [
        {
          "internalType": "string",
          "name": "",
          "type": "string"
        }
      ],
      "stateMutability": "view",
      "type": "function"
    },
    {
      "inputs": [],
      "name": "totalAssets",
      "outputs": [
        {
          "internalType": "uint256",
          "name": "",
          "type": "uint256"
        }
      ],
      "stateMutability": "view",
      "type": "function"
    },
    {
      "inputs": [],
      "name": "totalSupply",
      "outputs": [
        {
          "internalType": "uint256",
          "name": "",
          "type": "uint256"
        }
      ],
      "stateMutability": "view",
      "type": "function"
    },
    {
      "inputs": [
        {
          "internalType": "address",
          "name": "to",
          "type": "address"
        },
        {
          "internalType": "uint256",
          "name": "value",
          "type": "uint256"
        }
      ],
      "name": "transfer",
      "outputs": [
        {
          "internalType": "bool",
          "name": "",
          "type": "bool"
        }
      ],
      "stateMutability": "nonpayable",
      "type": "function"
    },
    {
      "inputs": [
        {
          "internalType": "address",
          "name": "from",
          "type": "address"
        },
        {
          "internalType": "address",
          "name": "to",
          "type": "address"
        },
        {
          "internalType": "uint256",
          "name": "value",
          "type": "uint256"
        }
      ],
      "name": "transferFrom",
      "outputs": [
        {
          "internalType": "bool",
          "name": "",
          "type": "bool"
        }
      ],
      "stateMutability": "nonpayable",
      "type": "function"
    },
    {
      "inputs": [],
      "name": "unpause",
      "outputs": [],
      "stateMutability": "nonpayable",
      "type": "function"
    },
    {
      "inputs": [
        {
          "internalType": "uint256",
          "name": "assets",
          "type": "uint256"
        },
        {
          "internalType": "address",
          "name": "receiver",
          "type": "address"
        },
        {
          "internalType": "address",
          "name": "owner",
          "type": "address"
        }
      ],
      "name": "withdraw",
      "outputs": [
        {
          "internalType": "uint256",
          "name": "",
          "type": "uint256"
        }
      ],
      "stateMutability": "nonpayable",
      "type": "function"
    }
  ],
  "bytecode": "0x60c06040523480156200001157600080fd5b5060405162001fb338038062001fb383398101604081905262000034916200035d565b838282600362000045838262000481565b50600462000054828262000481565b5050506000806200006b83620000df60201b60201c565b91509150816200007d5760126200007f565b805b60ff1660a05250506001600160a01b03166080526001600655620000a5600033620001c4565b505060078054610100600160b01b031916620100006001600160a01b03949094169390930261ff0019169290921790915550620005859050565b60408051600481526024810182526020810180516001600160e01b031663313ce56760e01b17905290516000918291829182916001600160a01b0387169162000128916200054d565b600060405180830381855afa9150503d806000811462000165576040519150601f19603f3d011682016040523d82523d6000602084013e6200016a565b606091505b50915091508180156200017f57506020815110155b15620001b7576000818060200190518101906200019d91906200056b565b905060ff8111620001b5576001969095509350505050565b505b5060009485945092505050565b60008281526005602090815260408083206001600160a01b038516845290915281205460ff166200026d5760008381526005602090815260408083206001600160a01b03861684529091529020805460ff19166001179055620002243390565b6001600160a01b0316826001600160a01b0316847f2f8788117e7eff1d82e926ec794901d17c78024a50270940304540a733656f0d60405160405180910390a450600162000271565b5060005b92915050565b6001600160a01b03811681146200028d57600080fd5b50565b634e487b7160e01b600052604160045260246000fd5b60005b83811015620002c3578181015183820152602001620002a9565b50506000910152565b600082601f830112620002de57600080fd5b81516001600160401b0380821115620002fb57620002fb62000290565b604051601f8301601f19908116603f0116810190828211818310171562000326576200032662000290565b816040528381528660208588010111156200034057600080fd5b62000353846020830160208901620002a6565b9695505050505050565b600080600080608085870312156200037457600080fd5b8451620003818162000277565b6020860151909450620003948162000277565b60408601519093506001600160401b0380821115620003b257600080fd5b620003c088838901620002cc565b93506060870151915080821115620003d757600080fd5b50620003e687828801620002cc565b91505092959194509250565b600181811c908216806200040757607f821691505b6020821081036200042857634e487b7160e01b600052602260045260246000fd5b50919050565b601f8211156200047c57600081815260208120601f850160051c81016020861015620004575750805b601f850160051c820191505b81811015620004785782815560010162000463565b5050505b505050565b81516001600160401b038111156200049d576200049d62000290565b620004b581620004ae8454620003f2565b846200042e565b602080601f831160018114620004ed5760008415620004d45750858301515b600019600386901b1c1916600185901b17855562000478565b600085815260208120601f198616915b828110156200051e57888601518255948401946001909101908401620004fd565b50858210156200053d5787850151600019600388901b60f8161c191681555b5050505050600190811b01905550565b6000825162000561818460208701620002a6565b9190910192915050565b6000602082840312156200057e57600080fd5b5051919050565b60805160a0516119f3620005c0600039600061078c0152600081816103a0015281816105aa015281816111e7015261129901526119f36000f3fe608060405234801561001057600080fd5b506004361061025e5760003560e01c80637adbf97311610146578063b460af94116100c3578063d5377ab311610087578063d5377ab314610537578063d547741f1461053f578063d70385be14610552578063d905777e1461055a578063dd62ed3e1461056d578063ef8b30f71461051157600080fd5b8063b460af94146104eb578063ba087652146104fe578063c63d75b6146103e0578063c6e6f59214610511578063ce96cb771461052457600080fd5b806394bf804d1161010a57806394bf804d146104a257806395d89b41146104b5578063a217fddf146104bd578063a9059cbb146104c5578063b3d7f6b9146104d857600080fd5b80637adbf9731461043c5780637dc0d1d01461044f5780638125092f146104685780638456cb591461048757806391d148541461048f57600080fd5b80632f2ff15d116101df5780633f4ba83a116101a35780633f4ba83a146103d8578063402d267d146103e05780634cdad506146102b65780635c975abb146103f55780636e553f651461040057806370a082311461041357600080fd5b80632f2ff15d14610335578063313ce5671461034a578063364bc15a1461036457806336568abe1461038b57806338d52e0f1461039e57600080fd5b806309d524ab1161022657806309d524ab146102dc5780630a28a477146102e457806318160ddd146102f757806323b872dd146102ff578063248a9ca31461031257600080fd5b806301e1d1141461026357806301ffc9a71461027e57806306fdde03146102a157806307a2d13a146102b6578063095ea7b3146102c9575b600080fd5b61026b6105a6565b6040519081526020015b60405180910390f35b61029161028c3660046115ad565b610638565b6040519015158152602001610275565b6102a961066f565b60405161027591906115d7565b61026b6102c4366004611625565b610701565b6102916102d736600461165a565b61070e565b61026b604181565b61026b6102f2366004611625565b610726565b60025461026b565b61029161030d366004611684565b610733565b61026b610320366004611625565b60009081526005602052604090206001015490565b6103486103433660046116c0565b610759565b005b610352610784565b60405160ff9091168152602001610275565b61026b7ffc8737ab85eb45125971625a9ebdb75cc78e01d5c1fa80c4c6e5203f47bc4fab81565b6103486103993660046116c0565b6107b0565b7f00000000000000000000000000000000000000000000000000000000000000005b6040516001600160a01b039091168152602001610275565b6103486107e8565b61026b6103ee3660046116ec565b5060001990565b60075460ff16610291565b61026b61040e3660046116c0565b6107fe565b61026b6104213660046116ec565b6001600160a01b031660009081526020819052604090205490565b61034861044a3660046116ec565b610826565b6007546103c0906201000090046001600160a01b031681565b60075461047a90610100900460ff1681565b604051610275919061173f565b610348610886565b61029161049d3660046116c0565b610899565b61026b6104b03660046116c0565b6108c4565b6102a96108e0565b61026b600081565b6102916104d336600461165a565b6108ef565b61026b6104e6366004611625565b6108fd565b61026b6104f936600461174d565b61090a565b61026b61050c36600461174d565b61092b565b61026b61051f366004611625565b610940565b61026b6105323660046116ec565b61094d565b610348610971565b61034861054d3660046116c0565b610af7565b61026b602d81565b61026b6105683660046116ec565b610b1c565b61026b61057b366004611789565b6001600160a01b03918216600090815260016020908152604080832093909416825291909152205490565b60007f00000000000000000000000000000000000000000000000000000000000000006040516370a0823160e01b81523060048201526001600160a01b0391909116906370a0823190602401602060405180830381865afa15801561060f573d6000803e3d6000fd5b505050506040513d601f19601f8201168201806040525081019061063391906117b3565b905090565b60006001600160e01b03198216637965db0b60e01b148061066957506301ffc9a760e01b6001600160e01b03198316145b92915050565b60606003805461067e906117cc565b80601f01602080910402602001604051908101604052809291908181526020018280546106aa906117cc565b80156106f75780601f106106cc576101008083540402835291602001916106f7565b820191906000526020600020905b8154815290600101906020018083116106da57829003601f168201915b5050505050905090565b6000610669826000610b3a565b60003361071c818585610b74565b5060019392505050565b6000610669826001610b81565b600033610741858285610bb1565b61074c858585610c20565b60019150505b9392505050565b60008281526005602052604090206001015461077481610c7f565b61077e8383610c89565b50505050565b6000610633817f000000000000000000000000000000000000000000000000000000000000000061181c565b6001600160a01b03811633146107d95760405163334bd91960e11b815260040160405180910390fd5b6107e38282610d1d565b505050565b60006107f381610c7f565b6107fb610d8a565b50565b6000610808610ddc565b610810610e06565b61081a8383610e2a565b90506106696001600655565b600061083181610c7f565b6007805462010000600160b01b031916620100006001600160a01b038516908102919091179091556040517f3df77beb5db05fcdd70a30fc8adf3f83f9501b68579455adbd100b818094039490600090a25050565b600061089181610c7f565b6107fb610e50565b60009182526005602090815260408084206001600160a01b0393909316845291905290205460ff1690565b60006108ce610ddc565b6108d6610e06565b61081a8383610e8d565b60606004805461067e906117cc565b60003361071c818585610c20565b6000610669826001610b3a565b6000610914610ddc565b61091f848484610eab565b90506107526001600655565b6000610935610ddc565b61091f848484610f03565b6000610669826000610b81565b6001600160a01b038116600090815260208190526040812054610669906000610b3a565b610979610ddc565b6000600760029054906101000a90046001600160a01b03166001600160a01b031663cce992306040518163ffffffff1660e01b8152600401602060405180830381865afa1580156109ce573d6000803e3d6000fd5b505050506040513d601f19601f820116820180604052508101906109f291906117b3565b90506000600754610100900460ff166001811115610a1257610a12611707565b148015610a1f5750604181115b15610a73576007805461ff0019166101001790556040517fd276948ab5d173775ef24b296a707861e46a91d073413edaf92d2aab54e1e96890610a66906001908490611835565b60405180910390a1610aea565b6001600754610100900460ff166001811115610a9157610a91611707565b148015610a9e5750602d81105b15610aea576007805461ff00191690556040517fd276948ab5d173775ef24b296a707861e46a91d073413edaf92d2aab54e1e96890610ae1906000908490611835565b60405180910390a15b50610af56001600655565b565b600082815260056020526040902060010154610b1281610c7f565b61077e8383610d1d565b6001600160a01b038116600090815260208190526040812054610669565b6000610752610b476105a6565b610b52906001611850565b610b5e6000600a611947565b600254610b6b9190611850565b85919085610f52565b6107e38383836001610f96565b6000610752610b9182600a611947565b600254610b9e9190611850565b610ba66105a6565b610b6b906001611850565b6001600160a01b0383811660009081526001602090815260408083209386168352929052205460001981101561077e5781811015610c1157828183604051637dc7a0d960e11b8152600401610c0893929190611956565b60405180910390fd5b61077e84848484036000610f96565b6001600160a01b038316610c4a57604051634b637e8f60e11b815260006004820152602401610c08565b6001600160a01b038216610c745760405163ec442f0560e01b815260006004820152602401610c08565b6107e383838361106b565b6107fb8133611182565b6000610c958383610899565b610d155760008381526005602090815260408083206001600160a01b03861684529091529020805460ff19166001179055610ccd3390565b6001600160a01b0316826001600160a01b0316847f2f8788117e7eff1d82e926ec794901d17c78024a50270940304540a733656f0d60405160405180910390a4506001610669565b506000610669565b6000610d298383610899565b15610d155760008381526005602090815260408083206001600160a01b0386168085529252808320805460ff1916905551339286917ff6391f5c32d9c69d2a47ea670b442974b53935d1edc7fd64eb21e047a839171b9190a4506001610669565b610d926111bf565b6007805460ff191690557f5db9ee0a495bf2e6ff9c91a7834c1ba4fdd244a5e8aa4e537bd38aeae4b073aa335b6040516001600160a01b03909116815260200160405180910390a1565b600260065403610dff57604051633ee5aeb560e01b815260040160405180910390fd5b6002600655565b60075460ff1615610af55760405163d93c066560e01b815260040160405180910390fd5b60006000196000610e3a85610940565b9050610e48338587846111e2565b949350505050565b610e58610e06565b6007805460ff191660011790557f62e78cea01bee320cd4e420270b5ea74000d11b0c9f74754ebdbfc544b05a258610dbf3390565b60006000196000610e9d856108fd565b9050610e48338583886111e2565b600080610eb78361094d565b905080851115610ee057828582604051633fa733bb60e21b8152600401610c0893929190611956565b6000610eeb86610726565b9050610efa3386868985611266565b95945050505050565b600080610f0f83610b1c565b905080851115610f3857828582604051632e52afbb60e21b8152600401610c0893929190611956565b6000610f4386610701565b9050610efa338686848a611266565b6000610f81610f6083611326565b8015610f7c575060008480610f7757610f77611977565b868809115b151590565b610f8c868686611353565b610efa9190611850565b6001600160a01b038416610fc05760405163e602df0560e01b815260006004820152602401610c08565b6001600160a01b038316610fea57604051634a1406b160e11b815260006004820152602401610c08565b6001600160a01b038085166000908152600160209081526040808320938716835292905220829055801561077e57826001600160a01b0316846001600160a01b03167f8c5be1e5ebec7d5bd14f71427d1e84f3dd0314c0f7b2291e5b200ac8c7c3b9258460405161105d91815260200190565b60405180910390a350505050565b6001600160a01b03831661109657806002600082825461108b9190611850565b909155506110f59050565b6001600160a01b038316600090815260208190526040902054818110156110d65783818360405163391434e360e21b8152600401610c0893929190611956565b6001600160a01b03841660009081526020819052604090209082900390555b6001600160a01b03821661111157600280548290039055611130565b6001600160a01b03821660009081526020819052604090208054820190555b816001600160a01b0316836001600160a01b03167fddf252ad1be2c89b69c2b068fc378daa952ba7f163c4a11628f55a4df523b3ef8360405161117591815260200190565b60405180910390a3505050565b61118c8282610899565b6111bb5760405163e2517d3f60e01b81526001600160a01b038216600482015260248101839052604401610c08565b5050565b60075460ff16610af557604051638dfc202b60e01b815260040160405180910390fd5b61120e7f0000000000000000000000000000000000000000000000000000000000000000853085611408565b611218838261146f565b826001600160a01b0316846001600160a01b03167fdcbc1c05240f31ff3ad067ef1ee35ce4997762752e3a095284754544f4c709d7848460405161105d929190918252602082015260400190565b826001600160a01b0316856001600160a01b03161461128a5761128a838683610bb1565b61129483826114a5565b6112bf7f000000000000000000000000000000000000000000000000000000000000000085846114db565b826001600160a01b0316846001600160a01b0316866001600160a01b03167ffbde797d201c681b91056529119e0b02407c7bb96a4a2c75c01fc9667232c8db8585604051611317929190918252602082015260400190565b60405180910390a45050505050565b6000600282600381111561133c5761133c611707565b611346919061198d565b60ff166001149050919050565b6000806000611362868661150c565b91509150816000036113875783818161137d5761137d611977565b0492505050610752565b81841161139e5761139e600385150260111861152a565b6000848688096000868103871696879004966002600389028118808a02820302808a02820302808a02820302808a02820302808a02820302808a02909103029181900381900460010185841190960395909502919093039390930492909217029150509392505050565b6040516001600160a01b03848116602483015283811660448301526064820183905261077e9186918216906323b872dd906084015b604051602081830303815290604052915060e01b6020820180516001600160e01b03838183161783525050505061153c565b6001600160a01b0382166114995760405163ec442f0560e01b815260006004820152602401610c08565b6111bb6000838361106b565b6001600160a01b0382166114cf57604051634b637e8f60e11b815260006004820152602401610c08565b6111bb8260008361106b565b6040516001600160a01b038381166024830152604482018390526107e391859182169063a9059cbb9060640161143d565b60008060001983850993909202808410938190039390930393915050565b634e487b71600052806020526024601cfd5b600080602060008451602086016000885af18061155f576040513d6000823e3d81fd5b50506000513d91508115611577578060011415611584565b6001600160a01b0384163b155b1561077e57604051635274afe760e01b81526001600160a01b0385166004820152602401610c08565b6000602082840312156115bf57600080fd5b81356001600160e01b03198116811461075257600080fd5b600060208083528351808285015260005b81811015611604578581018301518582016040015282016115e8565b506000604082860101526040601f19601f8301168501019250505092915050565b60006020828403121561163757600080fd5b5035919050565b80356001600160a01b038116811461165557600080fd5b919050565b6000806040838503121561166d57600080fd5b6116768361163e565b946020939093013593505050565b60008060006060848603121561169957600080fd5b6116a28461163e565b92506116b06020850161163e565b9150604084013590509250925092565b600080604083850312156116d357600080fd5b823591506116e36020840161163e565b90509250929050565b6000602082840312156116fe57600080fd5b6107528261163e565b634e487b7160e01b600052602160045260246000fd5b6002811061173b57634e487b7160e01b600052602160045260246000fd5b9052565b60208101610669828461171d565b60008060006060848603121561176257600080fd5b833592506117726020850161163e565b91506117806040850161163e565b90509250925092565b6000806040838503121561179c57600080fd5b6117a58361163e565b91506116e36020840161163e565b6000602082840312156117c557600080fd5b5051919050565b600181811c908216806117e057607f821691505b60208210810361180057634e487b7160e01b600052602260045260246000fd5b50919050565b634e487b7160e01b600052601160045260246000fd5b60ff818116838216019081111561066957610669611806565b60408101611843828561171d565b8260208301529392505050565b8082018082111561066957610669611806565b600181815b8085111561189e57816000190482111561188457611884611806565b8085161561189157918102915b93841c9390800290611868565b509250929050565b6000826118b557506001610669565b816118c257506000610669565b81600181146118d857600281146118e2576118fe565b6001915050610669565b60ff8411156118f3576118f3611806565b50506001821b610669565b5060208310610133831016604e8410600b8410161715611921575081810a610669565b61192b8383611863565b806000190482111561193f5761193f611806565b029392505050565b600061075260ff8416836118a6565b6001600160a01b039390931683526020830191909152604082015260600190565b634e487b7160e01b600052601260045260246000fd5b600060ff8316806119ae57634e487b7160e01b600052601260045260246000fd5b8060ff8416069150509291505056fea264697066735822122024d417f131add6fca8fe65457c17410d6fb75015fb93141ed0def4b9568cabed64736f6c63430008140033",
  "linkReferences": {},
  "deployedLinkReferences": {}
}